:04000000FEEFFFF020
:10EF840000000102030405060708DB0FC940E4CBB7
:10EF94009640DB0F4940DB0FC93F3C6C3636CF0748
:10EFA40050B98488083CABAA2ABEA3858832DA0FFC
:10EFB400C93F83F9223F0000003F179ACC373F0432
:10EFC400B6BA9FAA2A3D000000BFDB0FC940E4CBBC
:10EFD4009640DB0F4940DB0FC93F500100000000A1
:10EFE400000000000000000000000000000000001D
:10EFF400000000000000000000000000000000000D
:10F0040000000000000000000000000000000000FC
:10F01400200030003000300030003000300030007C
:10F02400200000000000300000000000000000008C
:10F034000000000000000000000078007800480094
:10F044004800000000000000000000000000000074
:10F0540000000000000000000000000000000000AC
:10F064000000000000004C00CC00FE03C800880033
:10F074008800FE03980190011001000000000000C8
:10F08400000000000000000020003000F8008C01A7
:10F0940084018001C00078001C00040004018C017C
:10F0A400FC00300020000000000000000000000010
:10F0B4000000000000000000C301420364036C036D
:10F0C4004803D00137002D004D00CD008D0007010D
:10F0D400000000000000000000000000000000002C
:10F0E4000000F000980198019801B001E000E201ED
:10F0F40032031E030C039E01F30000000000000015
:10F10400000000000000000000000000300030009B
:10F1140020002000000000000000000000000000AB
:10F124000000000000000000000000001800300093
:10F13400200060006000600060006000600060000B
:10F144006000600060002000300018000000000033
:10F1540000000000000060003000300010001000CB
:10F16400100010001800180010001000100010000B
:10F1740030003000600000000000000000000000CB
:10F18400000000000000000000002000A800F800BB
:10F1940070005800000000000000000000000000A3
:10F1A400000000000000000000000000000000005B
:10F1B400000000000000000000002000600060006B
:10F1C4006000FE036000600060002000000000009A
:10F1D400000000000000000000000000000000002B
:10F1E400000000000000000000000000000000001B
:10F1F40000000000000000000000300030000000AB
:10F2040000000000000000000000000000000000FA
:10F214000000000000000000FC00000000000000EE
:10F2240000000000000000000000000000000000DA
:10F2340000000000000000000000000000000000CA
:10F2440000000000000000000000000000000000BA
:10F254002000000004000C000C000800180010003E
:10F26400100030002000600040004000C00080001A
:10F27400800000000000000000000000000000000A
:10F284000000000000007800CC00860186018601A1
:10F2940086018601860186018601CC007800000083
:10F2A400000000000000000000000000000000005A
:10F2B40010007800D80098011800180018001800F1
:10F2C40018001800180010000000000000000000E2
:10F2D400000000000000000000007800CC00840161
:10F2E400860104000C00180030006000E000C0013A
:10F2F400FC0100000000000000000000000000000D
:10F3040000000000FC010C001800300060007800D0
:10F314000C000400060004018C01F8000000000049
:10F3240000000000000000000000000000001800C1
:10F334001C003C006C004C00CC008C018C01FE03D2
:10F344000C000C0008000000000000000000000099
:10F354000000000000000000FC008001800180012A
:10F36400F8018C010400040004010401DC01F8002C
:10F374000000000000000000000000000000000089
:10F3840000001800300020006000F800CC00860166
:10F39400860186018601CC00780000000000000090
:10F3A400000000000000000000000000FC010C0050
:10F3B4000C0008001800100030003000200060002D
:10F3C4006000400000000000000000000000000099
:10F3D4000000000000007800CE0086008600C60011
:10F3E400FC00C600820183018201CE007C00000083
:10F3F4000000000000000000000000000000000009
:10F404007800CC008601860186018601CC007C0050
:10F414001800100030006000000000000000000030
:10F4240000000000000000000000000000000000D8
:10F434000000000000002000200000000000000088
:10F444000000200020000000000000000000000078
:10F454000000000000000000000000000000200088
:10F464002000000000000000000020002000200018
:10F474000000000000000000000000000000000088
:10F484000000000004000C0038006000C000C00050
:10F49400600038000C0004000000000000000000C0
:10F4A4000000000000000000000000000000000058
:10F4B4000000FC01000000000000FC01000000004E
:10F4C4000000000000000000000000000000000038
:10F4D40000000000000000008000C0007000180060
:10F4E4000C000C0018007000C00080000000000038
:10F4F4000000000000000000000000007800CC00C4
:10F50400840104010C0018001000300030002000B9
:10F5140000003000000000000000000000000000B7
:10F5240000000000FC008E0103037902DD028D025D
:10F534008D038D02DD02FF0200028603FC01000040
:10F5440000000000000000000000000000000000B7
:10F55400600070005000D800980088018C010C01F4
:10F56400FC03060306020202000000000000000083
:10F5740000000000000000000000F8030C03040376
:10F5840004030C03F8030C030403060304030C0331
:10F59400F80300000000000000000000000000006C
:10F5A40000000000F8009C010603060300030003AA
:10F5B40000030003060306039C01F800000000009A
:10F5C4000000000000000000000000000000F8033C
:10F5D4001C030C03040306030603060306030403C7
:10F5E40004031C03F80300000000000000000000F6
:10F5F4000000000000000000FC0180018001800187
:10F604008001FC0180018001800180018001FC01F6
:10F6140000000000000000000000000000000000E6
:10F624000000FC0180018001800180018001FC0157
:10F6340080018001800180010001000000000000C1
:10F64400000000000000000000000000F8008C0131
:10F654000603000300031E03060306030603060352
:10F664009C01F80000000000000000000000000001
:10F67400000000000000040206030603060306035C
:10F68400FE03060306030603060306030402000042
:10F694000000000000000000000000000000000066
:10F6A40020003000300030003000300030003000E6
:10F6B4003000300030002000000000000000000096
:10F6C40000000000000000000000FC01060006002D
:10F6D4000600060006000600060004010401DC0121
:10F6E400F80000000000000000000000000000001E
:10F6F4000000000004018C019801B001E001C00188
:10F70400C001E001B00198018C0106010000000075
:10F7140000000000000000000000000000000001E4
:10F7240080018001800180018001800180018001CD
:10F7340080018001FC0100000000000000000000C6
:10F744000000000000000000030303038703870395
:10F75400CF034B037B03330333030303030301028C
:10F764000000000000000000000000000000000095
:10F774000000040306038603C603C60366032603C8
:10F7840036031E030E030E030402000000000000F3
:10F79400000000000000000000000000F8008C01E0
:10F7A400060306030603060306030603060306030D
:10F7B4008C01F800000000000000000000000000C0
:10F7C400000000000000FC01860182018301820127
:10F7D4008601FC018001800180018001000100009C
:10F7E4000000000000000000000000000000F8001D
:10F7F4008C01060306030603060306030603060339
:10F8040006038C01FC00060000000000000000005C
:10F8140000000000000000000000F8018C018601D7
:10F82400860186018601FC0198018C018C01860108
:10F8340002010000000000000000000000000000C1
:10F84400000000007800CC00860180018001F000F7
:10F854003C00060006000601CC01F8000000000090
:10F864000000000000000000000000000000FE0195
:10F874003000300030003000300030003000300004
:10F884003000300010000000000000000000000004
:10F894000000000000000000040206030603060343
:10F8A400060306030603060304030C039C01F0008D
:10F8B4000000000000000000000000000000000044
:10F8C400000003010301820186008600C400CC000D
:10F8D4004C00680078003800300000000000000090
:10F8E4000000000000000000000000000100030010
:10F8F40003022302720272025602D6039E038C0391
:10F904008C010C0100000000000000000000000059
:10F9140000000000000002018601CC004C007800C9
:10F92400300030007800CC00C400860103010000E0
:10F9340000000000000000000000000000000000C3
:10F944000203060184018C00D800780070003000A6
:10F9540030003000300020000000000000000000F3
:10F9640000000000000000000000FE0106000C0082
:10F974000C001800300030006000C000C00080019E
:10F98400FE0100000000000000007800600060003C
:10F994006000600060006000600060006000600063
:10F9A400600060006000600078000000000000005B
:10F9B40000000000000080018000C0004000400002
:10F9C40060002000300010001000180008000C0037
:10F9D4000C0004000000000000000000000078009B
:10F9E4001800180018001800180018001800180053
:10F9F40018001800180018001800180078000000FB
:10FA040000000000000000000000000000000000F2
:10FA14007000D8000000000000000000000000009A
:10FA240000000000000000000000000000000000D2
:10FA340000000000000000000000000000000000C2
:10FA440000000000000000000000000000000000B2
:10FA540000000000000000000000FF0300000000A0
:10FA64000000000030001000000000000000000052
:10FA74000000000000000000000000000000000082
:10FA84000000000000000000000000000000000072
:10FA940000000000000000007800CC008C000C0086
:10FAA400FC008C018C019C01F400000000000000AB
:10FAB400000000000000000000000001800180013F
:10FAC400F801CC0184018401860184018401CC0104
:10FAD400F801000000000000000000000000000029
:10FAE4000000000000000000000000007800CC00CE
:10FAF40084018001800180018401CC007800000031
:10FB040000000000000000000000000000000400ED
:10FB1400060006007600CE00860186018601860175
:10FB24008601CE0074000000000000000000000008
:10FB340000000000000000000000000000000000C1
:10FB44007800CC0084018401FE0180018001CC0096
:10FB54007800000000000000000000000000000029
:10FB64003C0030006000FC00600060006000600049
:10FB74006000600060002000000000000000000041
:10FB84000000000000000000000000000000000071
:10FB94007400CE0086018601860186018601CE00AE
:10FBA400760004008C01F800000000000000000052
:10FBB400000000000000000180018001F801CC0178
:10FBC4008401860186018601860186010401000004
:10FBD4000000000000000000000000000000000021
:10FBE4002000000000002000300030003000300011
:10FBF4003000300030002000000000000000000051
:10FC04000000000000002000000000002000300080
:10FC14003000300030003000300030003000200070
:10FC24006000E00000000000000000000000000090
:10FC3400000000008000C000C000CC00D800F0002C
:10FC4400E000E000F000D800CC00860000000000D6
:10FC54000000000000000000000000000000200080
:10FC64003000300030003000300030003000300010
:10FC74003000300020000000000000000000000000
:10FC84000000000000000000000000000000000070
:10FC9400CE037B03310231023102310231023102DF
:10FCA400210000000000000000000000000000002F
:10FCB400000000000000000000007801CC01840175
:10FCC4008601860186018601860104010000000088
:10FCD4000000000000000000000000000000000020
:10FCE400000000007800CC008401860186018601B2
:10FCF4008401CC0078000000000000000000000037
:10FD04000000000000000000000000007801CC01A9
:10FD140084018401860184018401CC01F8018001FD
:10FD2400800100010000000000000000000000004D
:10FD34000000000000007400CE00860186018601E8
:10FD440086018601CE00760006000600040000004D
:10FD5400000000000000000000000000000000009F
:10FD640000007C00700060006000600060006000C3
:10FD740060004000000000000000000000000000DF
:10FD84000000000000000000000000007800CC002B
:10FD9400C000C00078000C000400CC007800000013
:10FDA400000000000000000000000000000020002F
:10FDB40060006000F80060006000600060006000A7
:10FDC40020003000380000000000000000000000A7
:10FDD400000000000000000000000000000000001F
:10FDE4000401860186018601860186018601CE0012
:10FDF400740000000000000000000000000000008B
:10FE04000000000000000000000004010C018C014F
:10FE14008800D800D8007000700060000000000066
:10FE240000000000000000000000000000000000CE
:10FE3400000000002100630073025202D2029E02FD
:10FE44008E038C018C010000000000000000000003
:10FE540000000000000000000000000000000C0191
:10FE64008801D800700060007000D80088010C017F
:10FE7400000000000000000000000000000000007E
:10FE840000000000000004010C018C018800D8006F
:10FE9400500070007000600060004000C00000006E
:10FEA400000000000000000000000000000000004E
:10FEB4000000FC011C001800300070006000C0004D
:10FEC400C001FC0100000000000018001000300018
:10FED400300030003000200060006000200020006E
:10FEE4003000300030003000180000000000000036
:10FEF40000000000300030003000300030003000DE
:10FF0400300030003000300030003000300030006D
:10FF14003000200000000000000000000000C000CD
:10FF2400600020002000300030003000180018006D
:10FF3400300030003000200020006000C0000000CD
:10FF440000000000000000000000000000000000AD
:10FF5400000000000000000000000000000000009D
:10FF64000000E4013C01000000000000000000006B
:10FF740000002020202020202020202020202020BD
:10FF84002020202020202020200025303268686492
:10FF94003A2530326868643A25303268686400254E
:10FFA40030326868642F2530326868642F25303415
:10FFB4006864004C6F6E676974756465203A20004C
:10FFC4004C61746974756465203A0025352E356674
:10FFD400206465670025322E3166560054722F6DF9
:10FFE400696E0025332E3166004B6D2F6800696EF3
:0BFFF40066006E616E0025686400006E
:020000040001F9
:10000000000E0501836F5AC584F55BC585F55CC597
:1000100086F55DC587F587BF12EF80F010EF80F0A1
:1000200026EF80F0010E836F84C554F585C555F524
:1000300086C556F587C557F536ECB0F054C584F53E
:1000400055C585F556C586F557C587F5000E0501DA
:10005000896F000E886F1AC673F51BC674F583513D
:10006000D8B435EF80F037EF80F04BEF80F083515C
:10007000D8A43DEF80F03FEF80F045EF80F0000E18
:10008000696F2B0E686F49EF80F0000E696F2D0EBF
:10009000686F68C583F584C501F585C502F586C519
:1000A00003F587C504F5DCECA8F001040210D8A420
:1000B0005CEF80F05EEF80F095EF80F005018351FA
:1000C000D8B465EF80F067EF80F070EF80F083C503
:1000D00027F67307D8A07407000E896F010E886F8A
:1000E000270E8825016E060E8921026EF20E036E20
:1000F000FF0E046E18ECB0F00501FD0E7327FF0E25
:10010000742358C511F559C512F5270E136E060E46
:10011000146E73C515F574C516F5F9ECABF011C581
:1001200058F512C559F538EF85F084C501F585C538
:1001300002F586C503F587C504F5DCECA8F001508F
:100140000210D8A4A6EF80F0A8EF80F0C8EF80F0EE
:1001500005018351D8B4AFEF80F0B1EF80F0BAEF72
:1001600080F083C527F67307D8A07407000E896F47
:10017000010E886F270E8825016E060E8921026EFA
:10018000F60E036EFF0E046E18ECB0F07CEF80F0FC
:10019000000E05018A6F000E8B6F800E8C6F3F0E74
:1001A0008D6F000E726F000E716F84C501F585C5ED
:1001B00002F586C503F587C504F5000E056E000E31
:1001C000066E000E076E000E086EAEECACF0D8B0F6
:1001D000ECEF80F0EEEF80F0CDEF81F0FBEF80F000
:1001E00075C58AF576C58BF577C58CF578C58DF51F
:1001F0000501714B722B8AC50FF58BC510F58CC5A7
:1002000011F58DC512F5000E136E000E146E200E42
:10021000156E410E166E04EC91F00FC575F510C504
:1002200076F511C577F512C578F505017551845D30
:10023000016E76518559026E77518659036E785159
:100240008759046E2FECAFF004BE32EF81F00450FA
:100250000310021009E1020E015CD8A032EF81F018
:1002600034EF81F0F0EF80F075C528F576C529F5FB
:1002700077C52AF578C52BF584C52CF585C52DF5F0
:1002800086C52EF587C52FF55AECA8F0D8A04BEF00
:1002900081F04DEF81F0F0EF80F005018A51845D2F
:1002A000016E8B518559026E8C518659036E8D51AA
:1002B0008759046E2FECAFF004BE6CEF81F0045050
:1002C0000310021007E1020E015CD8B06AEF81F062
:1002D0006CEF81F0B4EF81F08AC584F58BC585F5AC
:1002E0008CC586F58DC587F5CDEF81F08AC501F502
:1002F0008BC502F58CC503F58DC504F5000E056EA2
:10030000000E066E200E076E410E086EFDEC94F096
:1003100001C58AF502C58BF503C58CF504C58DF5BD
:1003200005017107D8A072078A51845D016E8B5157
:100330008559026E8C518659036E8D518759046E12
:100340002FECAFF004BEB2EF81F0045003100210A6
:1003500007E1020E015CD8B0B0EF81F0B2EF81F09E
:10036000B4EF81F06CEF81F084C528F585C529F5DF
:1003700086C52AF587C52BF58AC52CF58BC52DF5C5
:100380008CC52EF58DC52FF55AECA8F0D8A0CBEF73
:1003900081F0CDEF81F076EF81F05EC56BF56BC536
:1003A0006CF50501FCBFD7EF81F0D9EF81F0DFEFED
:1003B00081F0FBC564F5FCC565F5E3EF81F0000E47
:1003C000656F060E646F64C56FF565C570F56F4B9C
:1003D000702B660E6C19D8A4F0EF81F0F2EF81F06B
:1003E00012EF82F072BFF9EF81F0F7EF81F005EFC5
:1003F00082F0000E8A6F000E8B6F800E8C6F3F0EA6
:100400008D6F000E726F000E716F670E6B19D8B48E
:100410000CEF82F00EEF82F012EF82F071516F2735
:1004200072517023000E826F000E816F84C579F5C2
:1004300085C57AF586C57BF587C57CF58AC575F5D2
:100440008BC576F58CC577F58DC578F5A3EF82F071
:1004500079C501F57AC502F57BC503F57CC504F5C0
:100460008AC505F58BC506F58CC507F58DC508F55C
:10047000FDEC94F001C51AF502C51BF503C51CF58A
:1004800004C51DF5C7EC9DF01AC57DF51BC57EF5AD
:100490001CC57FF51DC580F57DC538F57EC539F5D0
:1004A0007FC53AF580C53BF5D7ECA7F038C56DF5AB
:1004B00039C56EF579C538F57AC539F57BC53AF594
:1004C0007CC53BF57DC513F57EC514F57FC515F5D7
:1004D00080C516F58AC50FF58BC510F58CC511F5CD
:1004E0008DC512F504EC91F00FC53CF510C53DF536
:1004F00011C53EF512C53FF5D3ECAFF038C579F51F
:1005000039C57AF53AC57BF53BC57CF58AC501F559
:100510008BC502F58CC503F58DC504F5000E056E7F
:10052000000E066E200E076E410E086EFDEC94F074
:1005300001C58AF502C58BF503C58CF504C58DF59B
:100540000501814B822B6F51815D8251800A606F62
:100550007051800A6059D8A0B0EF82F0B2EF82F0FB
:1005600028EF82F08AC50FF58BC510F58CC511F503
:100570008DC512F5000E136E000E146EA00E156ED2
:10058000400E166E04EC91F00FC57DF510C57EF59A
:1005900011C57FF512C580F579C528F57AC529F50D
:1005A0007BC52AF57CC52BF57DC52CF57EC52DF5C3
:1005B0007FC52EF580C52FF55AECA8F0D8B0E3EF33
:1005C00082F0E5EF82F0F0EF82F0000E05017D6F22
:1005D000000E7E6F000E7F6F000E806F19EF83F0AC
:1005E00079C501F57AC502F57BC503F57CC504F52F
:1005F0007DC505F57EC506F57FC507F580C508F5FF
:10060000AEECACF0D8A007EF83F009EF83F019EF60
:1006100083F005016DB10FEF83F011EF83F019EF57
:1006200083F0000E7D6F000E7E6F000E7F6F000E58
:10063000806F84C528F585C529F586C52AF587C547
:100640002BF57DC52CF57EC52DF57FC52EF580C516
:100650002FF535EC8AF028C579F529C57AF52AC534
:100660007BF52BC57CF579C528F57AC529F57BC5C1
:100670002AF57CC52BF5000E136E000E146E200EAD
:10068000156E410E166E75C50FF576C510F577C55A
:1006900011F578C512F504EC91F00FC52CF510C5D5
:1006A0002DF511C52EF512C52FF55AECA8F0D8A0DE
:1006B0005CEF83F05EEF83F087EF83F00501714B11
:1006C000722B75C50FF576C510F577C511F578C590
:1006D00012F5000E136E000E146E200E156E410EF4
:1006E000166E04EC91F00FC575F510C576F511C5C1
:1006F00077F512C578F5660E05016C19D8A483EF5D
:1007000083F085EF83F087EF83F06F4B702B75C517
:100710008AF576C58BF577C58CF578C58DF571C5ED
:1007200062F572C563F5000E05016A6F000E676F12
:10073000000E666F000E826F000E816F85EF84F0F1
:1007400079C501F57AC502F57BC503F57CC504F5CD
:100750008AC505F58BC506F58CC507F58DC508F569
:10076000FDEC94F001C51AF502C51BF503C51CF597
:1007700004C51DF5C7EC9DF01AC57DF51BC57EF5BA
:100780001CC57FF51DC580F57DC538F57EC539F5DD
:100790007FC53AF580C53BF5D7ECA7F039BEDCEF55
:1007A00083F0395007E10A0E385CD8B0DAEF83F0F5
:1007B000DCEF83F0ECEF83F07DC538F57EC539F5CD
:1007C0007FC53AF580C53BF5D7ECA7F038C56DF588
:1007D00039C56EF5F1EF83F0000E05016E6F090E5D
:1007E0006D6F05016A51D8A4F8EF83F0FAEF83F03A
:1007F00022EF84F063BF01EF84F0FFEF83F022EF7C
:1008000084F0270E8825D96E060E8921DA6E2E0E09
:10081000DF6E884B892B7307D8A07407010E6A6FAF
:1008200022EF84F0270E8825D96E060E8921DA6E14
:10083000300EDF6E884B892B7307D8A074076607CC
:10084000D8A0670766516711D8A429EF84F02BEF71
:1008500084F012EF84F0270E8825D96E060E8921C8
:10086000DA6E6D51300FDF6E884B892B7307D8A07D
:10087000740779C538F57AC539F57BC53AF57CC575
:100880003BF57DC513F57EC514F57FC515F580C50F
:1008900016F58AC50FF58BC510F58CC511F58DC5FC
:1008A00012F504EC91F00FC53CF510C53DF511C5EE
:1008B0003EF512C53FF5D3ECAFF038C579F539C533
:1008C0007AF53AC57BF53BC57CF58AC501F58BC544
:1008D00002F58CC503F58DC504F5000E056E000EFE
:1008E000066E200E076E410E086EFDEC94F001C5F9
:1008F0008AF502C58BF503C58CF504C58DF5050198
:100900006207D8A06307814B822B6F51815D8251B2
:10091000800A606F7051800A6059D8B092EF84F0FD
:1009200094EF84F0A2EF84F089BFA0EF84F08951A6
:1009300009E14B0E885DD8A0A0EF84F0A2EF84F00F
:10094000A0EF83F0000E826F4F0E816F270E81257E
:10095000D96E060E8221DA6EDF6A270E606F060EF0
:10096000616F8851605F8951615B81516025016EC3
:1009700082516121026E270E036E060E046E88C539
:1009800005F589C506F5ABECAFF005018851815D31
:10099000886F89518259896F8351D8A4D2EF84F02E
:1009A000D5EF84F0010ED6EF84F0000E816F826BDC
:1009B000FDA3DDEF84F0DFEF84F00DEF85F0EFEFC6
:1009C00084F08807D8A08907270E8825D96E060EDF
:1009D0008921DA6E300EDF6E7307D8A07407735169
:1009E000815D8251800A606F7451800A6059D8B06D
:1009F000FCEF84F0FEEF84F00DEF85F08851815D0F
:100A00008251800A606F8951800A6059D8A00BEF2B
:100A100085F00DEF85F0E1EF84F08351D8B413EF4A
:100A200085F015EF85F020EF85F08807D8A08907BD
:100A3000270E8825D96E060E8921DA6E83C5DFF46C
:100A40008151735F8251745B58C511F559C512F518
:100A5000270E8825136E060E8921146E73C515F5B1
:100A600074C516F5F9ECABF011C558F512C559F57A
:100A7000120079C58FF57AC590F57BC591F57CC5D7
:100A800092F5050192BF47EF85F04AEF85F0010E20
:100A90004BEF85F0000E866F929FDB0E8F5D0F0E81
:100AA0009059490E91593F0E9259D8B05AEF85F09E
:100AB0005CEF85F085EF85F0800E915D390E9259DF
:100AC000D8B065EF85F067EF85F071EF85F079C5F7
:100AD00079F57AC57AF57BC57BF57CC57CF5BFEFEA
:100AE00087F079C540F57AC541F57BC542F57CC5EF
:100AF00043F574EC99F040C579F541C57AF542C5E6
:100B00007BF543C57CF5BFEF87F0D20E8F5D530EAA
:100B100090597B0E9159400E9259D8B092EF85F0C2
:100B200094EF85F077EF86F0E40E8F5DCB0E905951
:100B3000160E9159400E9259D8B0A1EF85F0A3EF4F
:100B400085F011EF86F08651D8B4A9EF85F0ABEFB0
:100B500085F0E3EF85F0DB0E2C6E0F0E2D6EC90EC7
:100B60002E6E3F0E2F6E79C528F57AC529F57BC507
:100B70002AF57CC52BF535EC8AF028C587F529C503
:100B800088F52AC589F52BC58AF587C538F588C546
:100B900039F589C53AF58AC53BF5D0EC9EF038C5E4
:100BA00054F539C555F53AC556F53BC557F536ECFC
:100BB000B0F054C579F555C57AF556C57BF557C5DE
:100BC0007CF5BFEF87F079C528F57AC529F57BC597
:100BD0002AF57CC52BF5DB0E2C6E0F0E2D6EC90E83
:100BE0002E6EBF0E2F6E35EC8AF028C587F529C50D
:100BF00088F52AC589F52BC58AF587C538F588C5D6
:100C000039F589C53AF58AC53BF5D0EC9EF038C573
:100C100079F539C57AF53AC57BF53BC57CF5BFEF6B
:100C200087F08651D8A417EF86F019EF86F03FEFD2
:100C300086F0DB0E2C6E0F0E2D6E490E2E6EC00E42
:100C40002F6E79C528F57AC529F57BC52AF57CC5AF
:100C50002BF535EC8AF028C554F529C555F52AC57C
:100C600056F52BC557F536ECB0F054C57DF555C596
:100C70007EF556C57FF557C580F563EF86F0DB0E30
:100C80002C6E0F0E2D6E490E2E6E400E2F6E79C5F6
:100C900028F57AC529F57BC52AF57CC52BF535ECF9
:100CA0008AF028C554F529C555F52AC556F52BC532
:100CB00057F536ECB0F054C57DF555C57EF556C5F3
:100CC0007FF557C580F57DC540F57EC541F57FC5EB
:100CD00042F580C543F574EC99F040C579F541C5FE
:100CE0007AF542C57BF543C57CF5BFEF87F0D60E9C
:100CF0008F5D310E9059E20E9159400E9259D8B045
:100D000084EF86F086EF86F027EF87F0E00E8F5DA8
:100D1000ED0E9059AF0E9159400E9259D8B093EF05
:100D200086F095EF86F0D5EF86F08651D8B49BEF2C
:100D300086F09DEF86F0B9EF86F079C528F57AC583
:100D400029F57BC52AF57CC52BF5E40E2C6ECB0E60
:100D50002D6E960E2E6E400E2F6E35EC8AF028C545
:100D600087F529C588F52AC589F52BC58AF5FDEFD4
:100D700085F0E40E2C6ECB0E2D6E960E2E6EC00EF0
:100D80002F6E79C528F57AC529F57BC52AF57CC56E
:100D90002BF535EC8AF028C587F529C588F52AC5D5
:100DA00089F52BC58AF5C5EF85F08651D8A4DBEF10
:100DB00086F0DDEF86F0F9EF86F079C528F57AC583
:100DC00029F57BC52AF57CC52BF5DB0E2C6E0F0EA5
:100DD0002D6EC90E2E6EC00E2F6E35EC8AF028C512
:100DE00081F529C582F52AC583F52BC584F513EF56
:100DF00087F079C528F57AC529F57BC52AF57CC524
:100E00002BF5DB0E2C6E0F0E2D6EC90E2E6E400EC6
:100E10002F6E35EC8AF028C581F529C582F52AC5E3
:100E200083F52BC584F581C540F582C541F583C5A1
:100E300042F584C543F574EC99F040C579F541C598
:100E40007AF542C57BF543C57CF5BFEF87F0800E90
:100E5000915D7F0E9259D8A030EF87F032EF87F086
:100E600044EF87F0FF0E8F13FF0E9013FF0E9113C8
:100E7000000E92138FC579F590C57AF591C57BF573
:100E800092C57CF5BFEF87F079C558F57AC559F55D
:100E90007BC55AF57CC55BF58B0E5C6E050E5D6EF1
:100EA00019EC93F05850030B0501856FB0EF87F0F4
:100EB0008BC554F58CC555F58DC556F58EC557F5C2
:100EC00036ECB0F054C58BF555C58CF556C58DF58F
:100ED00057C58EF58BC540F58CC541F58DC542F5DE
:100EE0008EC543F574EC99F040C579F541C57AF5A6
:100EF00042C57BF543C57CF5BFEF87F08BC538F560
:100F00008CC539F58DC53AF58EC53BF5D0EC9EF014
:100F100038C579F539C57AF53AC57BF53BC57CF519
:100F2000BFEF87F08BC538F58CC539F58DC53AF51F
:100F30008EC53BF5D0EC9EF038C554F539C555F556
:100F40003AC556F53BC557F536ECB0F054C579F5C2
:100F500055C57AF556C57BF557C57CF5BFEF87F0CB
:100F60008551000AD8B46AEF87F0010AD8B47EEF41
:100F700087F0030AD8B458EF87F092EF87F0120099
:100F800079C58FF57AC590F57BC591F57CC592F54D
:100F9000050192BFCEEF87F0D1EF87F0010ED2EFBF
:100FA00087F0000E8A6F929FDB0E8F5D0F0E9059B7
:100FB000490E91593F0E9259D8B0E1EF87F0E3EF17
:100FC00087F00CEF88F0800E915D390E9259D8B001
:100FD000ECEF87F0EEEF87F0F8EF87F0000E796F17
:100FE000000E7A6F800E7B6F3F0E7C6F34EF8AF0BD
:100FF00079C538F57AC539F57BC53AF57CC53BF539
:10100000D0EC9EF038C579F539C57AF53AC57BF54F
:101010003BC57CF534EF8AF0D20E8F5D530E9059AC
:101020007B0E9159400E9259D8B019EF88F01BEF02
:1010300088F0E2EF88F0E40E8F5DCB0E9059160E2B
:101040009159400E9259D8A028EF88F02AEF88F0E5
:1010500086EF88F08A51D8A430EF88F032EF88F01C
:101060004EEF88F079C528F57AC529F57BC52AF5B4
:101070007CC52BF5DB0E2C6E0F0E2D6E490E2E6EE1
:10108000C00E2F6E35EC8AF028C57DF529C57EF59A
:101090002AC57FF52BC580F568EF88F079C528F55E
:1010A0007AC529F57BC52AF57CC52BF5DB0E2C6EA0
:1010B0000F0E2D6E490E2E6E400E2F6E35EC8AF0FF
:1010C00028C57DF529C57EF52AC57FF52BC580F598
:1010D0007DC538F57EC539F57FC53AF580C53BF548
:1010E000D0EC9EF038C554F539C555F53AC556F5DE
:1010F0003BC557F536ECB0F054C579F555C57AF5D2
:1011000056C57BF557C57CF534EF8AF08A51D8B4C3
:101110008CEF88F08EEF88F0BCEF88F079C528F569
:101120007AC529F57BC52AF57CC52BF5DB0E2C6E1F
:101130000F0E2D6EC90E2E6E3F0E2F6E35EC8AF0FF
:1011400028C586F529C587F52AC588F52BC589F5F3
:1011500086C540F587C541F588C542F589C543F583
:1011600074EC99F040C579F541C57AF542C57BF537
:1011700043C57CF534EF8AF0DB0E386E0F0E396E06
:10118000C90E3A6E3F0E3B6E79C53CF57AC53DF50A
:101190007BC53EF57CC53FF5D3ECAFF038C540F5D7
:1011A00039C541F53AC542F53BC543F574EC99F0B4
:1011B00040C579F541C57AF542C57BF543C57CF557
:1011C00034EF8AF0D60E8F5D310E9059E20E9159B0
:1011D000400E9259D8B0EFEF88F0F1EF88F09CEF15
:1011E00089F0E00E8F5DED0E9059AF0E9159400ED3
:1011F0009259D8A0FEEF88F000EF89F052EF89F005
:101200008A51D8A406EF89F008EF89F024EF89F01D
:1012100079C528F57AC529F57BC52AF57CC52BF556
:10122000DB0E2C6E0F0E2D6EC90E2E6EC00E2F6EA5
:1012300035EC8AF028C581F529C582F52AC583F5E4
:101240002BC584F53EEF89F079C528F57AC529F5D7
:101250007BC52AF57CC52BF5DB0E2C6E0F0E2D6E93
:10126000C90E2E6E400E2F6E35EC8AF028C581F522
:1012700029C582F52AC583F52BC584F581C538F5C6
:1012800082C539F583C53AF584C53BF5D0EC9EF0AF
:1012900038C579F539C57AF53AC57BF53BC57CF596
:1012A00034EF8AF08A51D8B458EF89F05AEF89F0B8
:1012B00080EF89F0E40E386ECB0E396E960E3A6EE2
:1012C000C00E3B6E79C53CF57AC53DF57BC53EF554
:1012D0007CC53FF5D3ECAFF038C540F539C541F5D5
:1012E0003AC542F53BC543F574EC99F040C579F534
:1012F00041C57AF542C57BF543C57CF534EF8AF0EC
:1013000079C528F57AC529F57BC52AF57CC52BF565
:10131000E40E2C6ECB0E2D6E960E2E6EC00E2F6E22
:1013200035EC8AF028C586F529C587F52AC588F5E4
:101330002BC589F5A8EF88F0800E915D7F0E92593C
:10134000D8A0A5EF89F0A7EF89F0B9EF89F0FF0EDB
:101350008F6FFF0E906FFF0E916F7F0E926F8FC594
:1013600079F590C57AF591C57BF592C57CF534EF9A
:101370008AF079C558F57AC559F57BC55AF57CC50B
:101380005BF58B0E5C6E050E5D6E19EC93F058509C
:10139000030B0501856F25EF8AF08BC538F58CC5E9
:1013A00039F58DC53AF58EC53BF5D0EC9EF038C5C4
:1013B00079F539C57AF53AC57BF53BC57CF534EF4F
:1013C0008AF08BC538F58CC539F58DC53AF58EC5D3
:1013D0003BF5D0EC9EF038C554F539C555F53AC506
:1013E00056F53BC557F536ECB0F054C579F555C503
:1013F0007AF556C57BF557C57CF534EF8AF08BC579
:1014000054F58CC555F58DC556F58EC557F536EC9A
:10141000B0F054C58BF555C58CF556C58DF557C53F
:101420008EF58BC540F58CC541F58DC542F58EC551
:1014300043F574EC99F040C579F541C57AF542C59C
:101440007BF543C57CF534EF8AF08551000AD8B4AA
:10145000CDEF89F0010AD8B4FFEF89F0030AD8B4C0
:10146000E1EF89F011EF8AF012002B50800B346EFF
:101470002B502B24366E2AAE40EF8AF042EF8AF0D2
:1014800043EF8AF036803650D8B449EF8AF04BEFFC
:101490008AF060EF8AF03628D8A451EF8AF053EF33
:1014A0008AF05BEF8AF0000E286E000E296E000EA7
:1014B0002A6E000E2B6E2A8E000E2B6E68EF8AF0BD
:1014C000000E286E000E296E000E2A6E000E2B6E86
:1014D0002F50800B356E34503518D8B472EF8AF027
:1014E00074EF8AF075EF8AF0348C2F502F24356E0C
:1014F0002EAE7DEF8AF07FEF8AF080EF8AF03580A4
:101500003550D8B486EF8AF088EF8AF09DEF8AF0E4
:101510003528D8A48EEF8AF090EF8AF098EF8AF001
:10152000000E2C6E000E2D6E000E2E6E000E2F6E15
:101530002E8E000E2F6EA5EF8AF0000E2C6E000E80
:101540002D6E000E2E6E000E2F6E3650355CD8B00C
:10155000ACEF8AF0AEEF8AF0D5EF8AF034ACB3EF9F
:101560008AF0B5EF8AF0B7EF8AF0800E341A36C5EC
:1015700037F535C536F537C535F528C537F52CC5EA
:1015800028F537C52CF529C537F52DC529F537C5FB
:101590002DF52AC537F52EC52AF537C52EF52BC5ED
:1015A00037F52FC52BF537C52FF5000E376E3650A2
:1015B00035C530F5316A305E000E315A31BEEAEF82
:1015C0008AF0315009E11A0E305CD8A0EAEF8AF0B7
:1015D000ECEF8AF023EF8BF0285029102A102B1003
:1015E000D8A4F5EF8AF0F8EF8AF0010EF9EF8AF04F
:1015F000000E376E000E286E000E296E000E2A6E49
:10160000000E2B6E35C536F52CEF8BF037A00BEFA7
:101610008BF00DEF8BF013EF8BF0D8903730010982
:10162000376E15EF8BF0D890373228A01AEF8BF079
:101630001CEF8BF01DEF8BF0378E2B342B322A32C0
:1016400029322832362A3550365CD8A02AEF8BF062
:101650002CEF8BF006EF8BF034BC31EF8BF033EFD7
:101660008BF073EF8BF03650D8A439EF8BF03BEF53
:101670008BF045EF8BF0000E286E000E296E000EE9
:101680002A6E000E2B6E94EF8CF02C5028262D50D5
:1016900029222E502A222F502B222BA052EF8BF0E2
:1016A00054EF8BF000EF8CF037A059EF8BF05BEF2D
:1016B0008BF061EF8BF0D89037300109376E63EF14
:1016C0008BF0D890373228A068EF8BF06AEF8BF060
:1016D0006BEF8BF0378E2B342B322A3229322832A3
:1016E000362A00EF8CF02C50285C2D5029582E50B3
:1016F0002A582B50800A306E2F50800A3058D8B0AC
:1017000084EF8BF086EF8BF0B1EF8BF028502C5CE0
:10171000306E29502D58316E2A502E58326E2B5073
:101720002F58336EFF0E3024286EFF0E3120296EA5
:10173000FF0E32202A6EFF0E33202B6E800E341ADD
:10174000376C3750D8A4A7EF8BF0A9EF8BF0B9EF27
:101750008BF0010E2826000E29222A222B22B9EF17
:101760008BF02C50285E2D50295A2E502A5A2F507B
:101770002B5A285029102A102B10D8A4C2EF8BF016
:10178000C4EF8BF0F9EF8BF03750D8A4CAEF8BF091
:10179000CCEF8BF0F9EF8BF0000E286E000E296E67
:1017A000000E2A6E000E2B6E94EF8CF0D890283627
:1017B00029362A362B3637AEE0EF8BF0E2EF8BF08E
:1017C000E3EF8BF0288037A0E8EF8BF0EAEF8BF0A7
:1017D000EEEF8BF0D8803736F0EF8BF0D8903736BD
:1017E0003650D8B4F6EF8BF0F8EF8BF0F9EF8BF0C2
:1017F00036062AAEFEEF8BF000EF8CF0D6EF8BF0C2
:10180000000E356E37AE07EF8CF009EF8CF021EF4C
:101810008CF037C530F57F0E3016D8B412EF8CF04F
:1018200014EF8CF018EF8CF0010E356E21EF8CF078
:1018300028A01DEF8CF01FEF8CF021EF8CF014EF3F
:101840008CF03550D8B427EF8CF029EF8CF054EFA2
:101850008CF0010E2826000E29222A222B222BA0F2
:1018600034EF8CF036EF8CF054EF8CF028C530F567
:1018700029C531F52AC532F52BC533F5333433325A
:1018800032323132303230C528F531C529F532C512
:101890002AF533C52BF53628D8B451EF8CF053EF29
:1018A0008CF054EF8CF0362A3628D8B45AEF8CF0EE
:1018B0005CEF8CF064EF8CF03650D8A462EF8CF0C3
:1018C00064EF8CF076EF8CF0000E286E000E296E1F
:1018D000000E2A6E000E2B6E3650D8A472EF8CF0DC
:1018E00074EF8CF076EF8CF0000E346E36A07BEF48
:1018F0008CF07DEF8CF080EF8CF02A8E81EF8CF0F5
:101900002A9ED89036302B6E34AE89EF8CF08BEF58
:101910008CF08CEF8CF02B8E28C528F529C529F585
:101920002AC52AF52BC52BF5120090C5D9F491C50F
:10193000DAF4DEC4F6F4DDC4F7F4000EF86E080045
:10194000F550250AD8A4A7EF8CF0A9EF8CF0C8EFCA
:101950008EF090C5D9F491C5DAF4DE2A000EDD22AE
:10196000000E06011B6F000E1A6F1AC6FDF5050169
:10197000FB69FC69000E966FDEEF8CF0FD8390C56D
:10198000D9F491C5DAF4DE2A000EDD22DEEF8CF008
:10199000010E966FDEEF8CF090C5D9F491C5DAF4A4
:1019A000DEC4F6F4DDC4F7F4000EF86E0800F5505E
:1019B000300AD8B4BEEF8CF0C8EF8CF09651D8B492
:1019C000E4EF8CF0E6EF8CF0CCEF8CF090C507F5EF
:1019D00091C508F592C509F593C50AF5CBECAAF0B7
:1019E00007C51AF608C51BF606011BBFFCEF8CF0F5
:1019F000FAEF8CF003EF8DF00501FD8106011A6D01
:101A00001B1FD8B01B2B90C5D9F491C5DAF4DEC4E6
:101A1000F6F4DDC4F7F4000EF86E0800F5502E0A57
:101A2000D8A415EF8DF017EF8DF02CEF8DF090C549
:101A3000D9F491C5DAF4DE2A000EDD2290C507F54F
:101A400091C508F592C509F593C50AF5CBECAAF046
:101A500007C5FBF508C5FCF590C5D9F491C5DAF4C6
:101A6000DEC49CF5DDC49DF59CC5F6F49DC5F7F478
:101A7000000EF86E0800F5C49BF55FEF8DF09C4BEF
:101A80009D2B9CC5F6F49DC5F7F4000EF86E08007A
:101A9000F550680AD8A44FEF8DF051EF8DF06FEF3D
:101AA0008DF0480E9B6F9C4B9D2B6FEF8DF0690E58
:101AB0009B6F6FEF8DF0000E9B6F6FEF8DF0050148
:101AC0009B51640AD8B457EF8DF00C0AD8B43FEF9D
:101AD0008DF0010AD8B457EF8DF05BEF8DF09CC507
:101AE000F6F49DC5F7F4000EF86E0800F550640A90
:101AF000D8B47DEF8DF07FEF8DF0D4EF8DF09CC5E5
:101B0000F6F49DC5F7F4000EF86E0800F550690A6A
:101B1000D8A48DEF8DF08FEF8DF001EF8EF0D4EF24
:101B20008DF092C5D9F493C5DAF4DFC494F5020EB2
:101B3000DE26DFC495F5000EDD2294C5D9F495C5E7
:101B4000DAF4DEC497F5DDC498F5E3EF8DF092C5C5
:101B5000D9F493C5DAF4DFC494F5020EDE26DFC4AF
:101B600095F5000EDD2294C5D9F495C5DAF4DEC4EE
:101B700097F5DDC498F5E3EF8DF092C5D9F493C5E0
:101B8000DAF4DFC494F5020EDE26DFC495F5000E0C
:101B9000DD2294C5D9F495C5DAF4DF50976F986BC0
:101BA00097BF9807E3EF8DF09B51480AD8B4BDEF7B
:101BB0008DF0200AD8B4A7EF8DF0010AD8B491EFC8
:101BC0008DF0E3EF8DF0010E9C25946F000E9D21AA
:101BD000956F90C5D9F491C5DAF494C5DEF495C536
:101BE000DDF48EC51AF58FC51BF597C51CF598C594
:101BF0001DF5BEECA1F01AC58EF51BC58FF5E8EFFB
:101C00008EF090C5D9F491C5DAF4DEC49CF5DDC43C
:101C10009DF59CC5F6F49DC5F7F4000EF86E08001E
:101C2000F5C49BF520EF8EF09C4B9D2B2FEF8EF093
:101C30006C0E9B6F2FEF8EF0000E9B6F2FEF8EF0D0
:101C40009B514C0AD8B414EF8EF02A0AD8B418EF7E
:101C50008EF00A0AD8B414EF8EF01CEF8EF09CC5FB
:101C6000F6F49DC5F7F4000EF86E0800F550660A0C
:101C7000D8A43DEF8EF03FEF8EF0BBEF8EF075EF06
:101C80008EF092C5D9F493C5DAF4DFC494F5040E4E
:101C9000DE26DFC495F5000EDD2294C5D9F495C586
:101CA000DAF4DEC497F5DEC498F5DEC499F5DEC437
:101CB0009AF580EF8EF092C5D9F493C5DAF4DFC4BB
:101CC00094F5040EDE26DFC495F5000EDD2294C5E2
:101CD000D9F495C5DAF4DEC497F5DEC498F5DEC410
:101CE00099F5DEC49AF580EF8EF09B514C0AD8B47A
:101CF0005BEF8EF0200AD8B441EF8EF080EF8EF0CB
:101D0000010E9C25946F000E9D21956F90C5D9F40E
:101D100091C5DAF494C5DEF495C5DDF4ADEF8EF02F
:101D20008EC558F58FC559F597C55AF598C55BF519
:101D300099C55CF59AC55DF59CC5F6F49DC5F7F4AB
:101D4000000EF86E0800F5C45EF500EC80F058C592
:101D50008EF559C58FF5E8EF8EF09CC5F6F49DC55C
:101D6000F7F4000EF86E0800F550660AD8B490EF4C
:101D70008EF0BBEF8EF090C5D9F491C5DAF4DE2A6F
:101D8000000EDD22000E8F6F000E8E6FE8EF8EF0DA
:101D900090C5D9F491C5DAF4DEC4F6F4DDC4F7F4E5
:101DA000000EF86E0800F550016E026A8EC503F54C
:101DB0008FC504F532ECABF090C5D9F491C5DAF4D7
:101DC000DE2A000EDD22000E05018F6F010E8E6FE0
:101DD0001200050199519B5D9C51800A9F6F9A5199
:101DE000800A9F59D8B0F7EF8EF0F9EF8EF005EF2B
:101DF0008FF099C5A5F59AC5A6F59BC599F59CC523
:101E00009AF5A5C59BF5A6C59CF599C5AFF59AC5EC
:101E1000B0F5F4EF90F0AFC501F5B0C502F5000ED6
:101E200002BEFF0E036E046E010E9EECA2F001C511
:101E30000FF502C510F503C511F504C512F5350EF1
:101E4000136EFA0E146E8E0E156E3C0E166E04ECAA
:101E500091F00FC5B9F510C5BAF511C5BBF512C59E
:101E6000BCF5B9C579F5BAC57AF5BBC57BF5BCC576
:101E70007CF5C0EC87F079C5B1F57AC5B2F57BC5C4
:101E8000B3F57CC5B4F5B1C513F5B2C514F5B3C54A
:101E900015F5B4C516F597C501F598C502F5036AA1
:101EA000046A000E9EECA2F001C50FF502C510F504
:101EB00003C511F504C512F504EC91F00FC538F512
:101EC00010C539F511C53AF512C53BF5D7ECA7F0A9
:101ED000050193513824A16F94513920A26FB9C5DF
:101EE00079F5BAC57AF5BBC57BF5BCC57CF539EC8F
:101EF00085F079C5B5F57AC5B6F57BC5B7F57CC56E
:101F0000B8F5B5C513F5B6C514F5B7C515F5B8C51B
:101F100016F597C501F598C502F5036A046A000E27
:101F20009EECA2F001C50FF502C510F503C511F531
:101F300004C512F504EC91F00FC538F510C539F55C
:101F400011C53AF512C53BF5D7ECA7F0050195513F
:101F50003824A36F96513920A46FA1C50BF5A2C5F3
:101F60000CF5A3C50DF5A4C50EF59DC50FF59EC5D1
:101F700010F5020E116ED4ECAEF005019951AF5D73
:101F8000016E9A51B059026E000E046E140E036E6B
:101F900056ECACF001500210D8A4D1EF8FF0D3EF83
:101FA0008FF0F1EF90F0B9C579F5BAC57AF5BBC5F8
:101FB0007BF5BCC57CF5C0EC87F079C5B1F57AC579
:101FC000B2F57BC5B3F57CC5B4F5B1C513F5B2C5A3
:101FD00014F5B3C515F5B4C516F5FA0E0501972528
:101FE0009F6FFF0E9821A06F9FC501F5A0C502F558
:101FF000036A046A000E9EECA2F001C50FF502C54B
:1020000010F503C511F504C512F504EC91F00FC5E8
:1020100038F510C539F511C53AF512C53BF5D7ECC1
:10202000A7F0050193513824A76F94513920A86F68
:10203000B9C579F5BAC57AF5BBC57BF5BCC57CF5E4
:1020400039EC85F079C5B5F57AC5B6F57BC5B7F538
:102050007CC5B8F5B5C513F5B6C514F5B7C515F506
:10206000B8C516F5FA0E050197259F6FFF0E98214A
:10207000A06F9FC501F5A0C502F5036A046A000EB2
:102080009EECA2F001C50FF502C510F503C511F5D0
:1020900004C512F504EC91F00FC538F510C539F5FB
:1020A00011C53AF512C53BF5D7ECA7F005019551DE
:1020B0003824A96F96513920AA6FB9C579F5BAC5E8
:1020C0007AF5BBC57BF5BCC57CF5C0EC87F079C55E
:1020D000B1F57AC5B2F57BC5B3F57CC5B4F5B1C52C
:1020E00013F5B2C514F5B3C515F5B4C516F597C506
:1020F00001F598C502F5036A046A000E9EECA2F091
:1021000001C50FF502C510F503C511F504C512F59B
:1021100004EC91F00FC538F510C539F511C53AF545
:1021200012C53BF5D7ECA7F0050193513824AB6FEE
:1021300094513920AC6FB9C579F5BAC57AF5BBC5EC
:102140007BF5BCC57CF539EC85F079C5B5F57AC56C
:10215000B6F57BC5B7F57CC5B8F5B5C513F5B6C5FD
:1021600014F5B7C515F5B8C516F597C501F598C5A9
:1021700002F5036A046A000E9EECA2F001C50FF599
:1021800002C510F503C511F504C512F504EC91F074
:102190000FC538F510C539F511C53AF512C53BF52F
:1021A000D7ECA7F0050195513824AD6F9651392031
:1021B000AE6FA7C52DF5A8C52EF5A9C52FF5AAC5E3
:1021C00030F5ABC531F5ACC532F5ADC533F5AEC5AF
:1021D00034F59DC535F59EC536F5020E376E5BECC0
:1021E000A9F00501AF4BB02BAF519B5D9C51800A0C
:1021F0009F6FB051800A9F59D8B001EF91F003EF63
:1022000091F00BEF8FF012001250800B1B6E1250EA
:102210001224216E11AE0FEF91F011EF91F012EF39
:1022200091F021802150D8B418EF91F01AEF91F07D
:102230002DEF91F02128D8A420EF91F022EF91F01A
:102240002AEF91F0000E0F6E000E106E000E116E50
:10225000000E126E118E35EF91F0000E0F6E000E13
:10226000106E000E116E000E126E1650800B1B1AAF
:1022700016501624206E15AE40EF91F042EF91F00B
:1022800043EF91F020802050D8B449EF91F04BEF0C
:1022900091F05EEF91F02028D8A451EF91F053EF28
:1022A00091F05BEF91F0000E136E000E146E000EB5
:1022B000156E000E166E158E66EF91F0000E136E01
:1022C000000E146E000E156E000E166E2050D8B45F
:1022D0006CEF91F06EEF91F076EF91F02150D8A471
:1022E00074EF91F076EF91F080EF91F0000E0F6EA9
:1022F000000E106E000E116E000E126E18EF93F0AD
:1023000015500F02F3C426F5F4C427F526501C6EB1
:102310001D6A1E6A1F6A2750226E236A246A256A74
:1023200014501002F3C426F5F4C427F526501C26D9
:10233000000E1D221E221F2227502226000E2322BD
:102340002422252213501102F3C426F5F4C427F5E4
:1023500026501C26000E1D221E221F222750222638
:10236000000E2322242225221EC51FF51DC51EF5A1
:102370001CC51DF51C6A13501002F3C426F5F4C4E5
:1023800027F526501C2627501D22000E1E22000E67
:102390001F2214500F02F3C426F5F4C427F526506B
:1023A0001C2627501D22000E1E22000E1F221EC5B5
:1023B0001FF51DC51EF51CC51DF51C6A13500F0227
:1023C000F3C426F5F4C427F526501C2627501D22F9
:1023D000000E1E22000E1F2215501002F3C426F517
:1023E000F4C427F52650222627502322000E24224B
:1023F000000E252214501102F3C426F5F4C427F56B
:102400002650222627502322000E2422000E2522A9
:1024100015501102F3C426F5F4C427F52650176EA3
:102420002750186E196A1A6A19C51AF518C519F5D0
:1024300017C518F5176A175022261850232219506D
:1024400024221A5025221CC517F51DC518F51EC5D6
:1024500019F51FC51AF5190E33EF92F0D8901A32FC
:10246000193218321732E82E2EEF92F0175022262A
:1024700018502322195024221A5025221EC51FF558
:102480001DC51EF51CC51DF51C6A205021C517F57C
:10249000186A1726000E1822820E1724266EFF0EC9
:1024A0001820276E69EF92F0D89022362336243612
:1024B00025361FAE5EEF92F060EF92F061EF92F082
:1024C0002280D8901C361D361E361F362606D8A010
:1024D000270624AE6EEF92F070EF92F054EF92F078
:1024E000000E206E1FAE77EF92F079EF92F09DEF25
:1024F00092F0FF0E1C14176EFF0E1D14186EFF0EC7
:102500001E14196E7F0E1F141A6E17501810191012
:102510001A10D8B48EEF92F090EF92F094EF92F000
:10252000010E206E9DEF92F022A099EF92F09BEFAA
:1025300092F09DEF92F090EF92F02050D8B4A3EF7C
:1025400092F0A5EF92F0C9EF92F0010E2226000E54
:1025500023222422252225A0B0EF92F0B2EF92F0A0
:10256000C9EF92F022C517F523C518F524C519F552
:1025700025C51AF51A341A3219321832173217C50E
:1025800022F518C523F519C524F51AC525F5264ADF
:10259000272A27BED4EF92F0275008E12628D8A09A
:1025A000D4EF92F0D6EF92F0E0EF92F0000E226EB0
:1025B000000E236E800E246E7F0E256E0EEF93F0BC
:1025C00027BEEDEF92F0275006E12604D8B0EBEFDE
:1025D00092F0EDEF92F0F9EF92F0000E226E000E05
:1025E000236E000E246E000E256E000E1B6E0EEF85
:1025F00093F026C521F5FF0E2216FF0E23167F0E3F
:102600002416000E251621A008EF93F00AEF93F090
:102610000BEF93F0248ED8902130256E1B5025129D
:1026200022C50FF523C510F524C511F525C512F5F2
:1026300012000CC669F50DC66AF50EC66BF50FC61D
:102640006CF558C569F559C56AF55AC56BF55BC592
:102650006CF505016CBF2FEF93F032EF93F0010E94
:1026600033EF93F0000E686F6C9FDB0E695D0F0E09
:102670006A59C90E6B594D0E6C59D8B042EF93F0A0
:1026800044EF93F032EF94F058C501F559C502F5C7
:102690005AC503F55BC504F588ECB0F001C571F5CA
:1026A00002C572F503C573F504C574F5000E2C6EF2
:1026B000000E2D6E000E2E6E3F0E2F6E830E136ECB
:1026C000F90E146E220E156E3F0E166E71C50FF5C3
:1026D00072C510F573C511F574C512F504EC91F0CF
:1026E0000FC528F510C529F511C52AF512C52BF51A
:1026F00035EC8AF028C538F529C539F52AC53AF5EB
:102700002BC53BF5D7ECA7F038C575F539C576F57F
:102710003AC577F53BC578F575C501F576C502F57F
:1027200077C503F578C504F5010E9EECA2F001C54E
:102730006DF502C56EF503C56FF504C570F5DA0ECB
:10274000136E0F0E146EC90E156E3F0E166E6DC50C
:102750000FF56EC510F56FC511F570C512F504ECD7
:1027600091F00FC53CF510C53DF511C53EF512C5FC
:102770003FF571C538F572C539F573C53AF574C5BD
:102780003BF5D3ECAFF038C564F539C565F53AC50E
:1027900066F53BC567F564C538F565C539F566C5A9
:1027A0003AF567C53BF5A30E136E850E146E880EC1
:1027B000156E320E166E6DC50FF56EC510F56FC530
:1027C00011F570C512F504EC91F00FC53CF510C57C
:1027D0003DF511C53EF512C53FF5D3ECAFF05CC534
:1027E000D9F45DC5DAF438C5DEF439C5DEF43AC58E
:1027F000DEF43BC5DEF405016851D8B402EF94F075
:1028000004EF94F02CEF94F05CC5D9F45DC5DAF4D4
:10281000DEC454F5DEC455F5DEC456F5DEC457F506
:1028200036ECB0F05CC5D9F45DC5DAF454C5DEF41D
:1028300055C5DEF456C5DEF457C5DEF475C55EF544
:1028400076C55FF55E1E5F1E5E4A5F2A5EC558F55F
:102850005FC559F5FCEF94F075C558F576C559F587
:10286000FCEF94F058C501F559C502F55AC503F5BA
:102870005BC504F588ECB0F001C571F502C572F5D1
:1028800003C573F504C574F5000E2C6E000E2D6E95
:10289000000E2E6E3F0E2F6E830E136EF90E146E09
:1028A000220E156E3F0E166E71C50FF572C510F52E
:1028B00073C511F574C512F504EC91F00FC528F538
:1028C00010C529F511C52AF512C52BF535EC8AF08E
:1028D00028C538F529C539F52AC53AF52BC53BF584
:1028E000D7ECA7F038C575F539C576F53AC577F553
:1028F0003BC578F575C501F576C502F577C503F5D5
:1029000078C504F5010E9EECA2F001C56DF502C577
:102910006EF503C56FF504C570F5DA0E136E0F0E74
:10292000146EC90E156E3F0E166E6DC50FF56EC591
:1029300010F56FC511F570C512F504EC91F00FC5D7
:102940003CF510C53DF511C53EF512C53FF571C505
:1029500038F572C539F573C53AF574C53BF5D3EC56
:10296000AFF038C564F539C565F53AC566F53BC5C0
:1029700067F564C538F565C539F566C53AF567C5C7
:102980003BF5A30E136E850E146E880E156E320E77
:10299000166E6DC50FF56EC510F56FC511F570C5D6
:1029A00012F504EC91F00FC53CF510C53DF511C5CD
:1029B0003EF512C53FF5D3ECAFF038C560F539C52B
:1029C00061F53AC562F53BC563F55CC5D9F45DC5F3
:1029D000DAF460C5DEF461C5DEF462C5DEF463C519
:1029E000DEF405016851D8B4F8EF94F0FAEF94F0F2
:1029F0002CEF94F004EF94F012000450800B116E51
:102A000004500424186E03AE08EF95F00AEF95F019
:102A10000BEF95F018801850D8B411EF95F013EF24
:102A200095F028EF95F01828D8A419EF95F01BEF32
:102A300095F023EF95F0000E016E000E026E000E71
:102A4000036E000E046E038E000E046E30EF95F0E0
:102A5000000E016E000E026E000E036E000E046E7C
:102A60000850800B111A08500824196E07AE3BEF6E
:102A700095F03DEF95F03EEF95F019801950D8B4E0
:102A800044EF95F046EF95F05BEF95F01928D8A448
:102A90004CEF95F04EEF95F056EF95F0000E056E69
:102AA000000E066E000E076E000E086E078E000EFA
:102AB000086E63EF95F0000E056E000E066E000EB8
:102AC000076E000E086E0550061007100810D8A4F7
:102AD0006CEF95F06EEF95F086EF95F0000E016EBD
:102AE000000E026E000E036E000E046E800E0312C6
:102AF0007F0E04121150041201C501F502C502F542
:102B000003C503F504C504F5C9EF96F01850D8A421
:102B10008CEF95F08EEF95F098EF95F0000E016E2A
:102B2000000E026E000E036E000E046EC9EF96F0EA
:102B3000195018C509F50A6A095E000E0A5A7F0E77
:102B40000924126E000E0A20136E01C50DF502C590
:102B50000EF503C50FF504C510F5000E016E000E4D
:102B6000026E000E036E000E046E000E146E000E58
:102B7000156E000E166E000E176E000E196EF9EF30
:102B800095F01950D8B4C7EF95F0C9EF95F0E0EF84
:102B900095F0D8900D360E360F361036D890013697
:102BA00002360336043617AED8EF95F0DAEF95F01B
:102BB000DBEF95F00180D8901436153616361736AF
:102BC00005500D5C06500E5807500F58085010580D
:102BD000D8A0EDEF95F0EFEF95F0F8EF95F0178CAA
:102BE00005500D5E06500E5A07500F5A0850105AE5
:102BF000192A190E1964FFEF95F001EF96F0C1EF55
:102C000095F00D500E100F101010D8B40AEF96F07A
:102C10000CEF96F024EF96F0148024EF96F0D89005
:102C2000013602360336043617AE19EF96F01BEF65
:102C300096F01CEF96F00180D890143615361636B3
:102C400017361206D8A0130603AE29EF96F02BEF25
:102C500096F00FEF96F0000E196E17AE32EF96F069
:102C600034EF96F058EF96F0FF0E1414096EFF0E35
:102C700015140A6EFF0E16140B6E7F0E17140C6ED1
:102C800009500A100B100C10D8B449EF96F04BEF16
:102C900096F04FEF96F0010E196E58EF96F001A0E6
:102CA00054EF96F056EF96F058EF96F04BEF96F003
:102CB0001950D8B45EEF96F060EF96F084EF96F07E
:102CC000010E0126000E02220322042204A06BEF53
:102CD00096F06DEF96F084EF96F001C509F502C508
:102CE0000AF503C50BF504C50CF50C340C320B3298
:102CF0000A32093209C501F50AC502F50BC503F50B
:102D00000CC504F5124A132A13BE8FEF96F0135028
:102D100008E11228D8A08FEF96F091EF96F09CEF83
:102D200096F0000E136E1268000E016E000E026E19
:102D3000000E036E000E046E13BEA9EF96F0135042
:102D400006E11204D8B0A7EF96F0A9EF96F0B7EF1E
:102D500096F0000E136E000E126E000E016E000E45
:102D6000026E000E036E000E046E000E116E12C590
:102D700018F518A0BEEF96F0C0EF96F0C3EF96F0EE
:102D8000038EC4EF96F0039ED8901830046E7AEF4D
:102D900095F012001F0E3424146E000E3520156EAF
:102DA000050E3624166E000E3720176E0F0E3624D1
:102DB000186E000E3720196EFF0E1B6E1A68040E77
:102DC0001C6E2EECAEF01B0E3424146E000E35205B
:102DD000156E36C516F537C517F5140E3624186E60
:102DE000000E3720196EFF0E1B6E1A68040E1C6E43
:102DF0002EECAEF038C528F539C529F53AC52AF5C7
:102E00003BC52BF5330E2C6E330E2D6E6B0E2E6ED6
:102E1000410E2F6E5AECA8F0D8A011EF97F013EFE7
:102E200097F02DEF97F0160E3424146E000E352017
:102E3000156E36C516F537C517F5140E3624186EFF
:102E4000000E3720196E070E1B6EE00E1A6E040E70
:102E50001C6E2EECAEF045EF97F0160E3424146E77
:102E6000000E3520156E36C516F537C517F5140E4C
:102E70003624186E000E3720196E000E1B6E000EE1
:102E80001A6E040E1C6E2EECAEF038C528F539C54E
:102E900029F53AC52AF53BC52BF5330E2C6E330EBA
:102EA0002D6E5B0E2E6E410E2F6E5AECA8F0D8A040
:102EB0005CEF97F05EEF97F078EF97F0110E342407
:102EC000146E000E3520156E36C516F537C517F58C
:102ED000140E3624186E000E3720196EEF0E1B6E7E
:102EE000E20E1A6E040E1C6E2EECAEF090EF97F010
:102EF000110E3424146E000E3520156E36C516F5ED
:102F000037C517F5140E3624186E000E3720196ECB
:102F1000000E1B6E000E1A6E040E1C6E2EECAEF030
:102F200038C528F539C529F53AC52AF53BC52BF52D
:102F3000330E2C6E330E2D6E4B0E2E6E410E2F6EF9
:102F40005AECA8F0D8A0A7EF97F0A9EF97F0C3EF3D
:102F500097F00C0E3424146E000E3520156E36C515
:102F600016F537C517F5140E3624186E000E3720E7
:102F7000196EFD0E1B6E200E1A6E040E1C6E2EECCA
:102F8000AEF0DBEF97F00C0E3424146E000E3520FB
:102F9000156E36C516F537C517F5140E3624186E9E
:102FA000000E3720196E000E1B6E000E1A6E040EF6
:102FB0001C6E2EECAEF038C528F539C529F53AC59A
:102FC0002AF53BC52BF5660E2C6E660E2D6E460E51
:102FD0002E6E410E2F6E5AECA8F0D8A0F2EF97F0AB
:102FE000F4EF97F00EEF98F0070E3424146E000EF5
:102FF0003520156E36C516F537C517F5140E36246F
:10300000186E000E3720196EF80E1B6E000E1A6E29
:10301000040E1C6E2EECAEF026EF98F0070E342452
:10302000146E000E3520156E36C516F537C517F52A
:10303000140E3624186E000E3720196E000E1B6E0B
:10304000000E1A6E040E1C6E2EECAEF034C514F594
:1030500035C515F536C516F537C517F5120E3624E4
:10306000186E000E3720196EFF0E1B6E1A68060EC2
:103070001C6E2EECAEF0120051ECB1F034ECA6F068
:10308000000E0501946F780E936F000E966FF00E90
:10309000956F000E986F3C0E976FFF0E9A6F7E0E25
:1030A000996F000E9C6F820E9B6FFF0E9E6F9D6945
:1030B000E9EC8EF0000E0501946F780E936F000E10
:1030C000966F500E956F000E986F3C0E976FFF0E27
:1030D0009A6F7E0E996F000E9C6F820E9B6FFF0E93
:1030E0009E6F9D69E9EC8EF0BE9ABF9078EF98F0E4
:1030F000F40E176E050E186ECAECA6F00009D8B4CF
:1031000084EF98F086EF98F078EF98F0060126515A
:10311000D8A48DEF98F08FEF98F00AEF99F0D9EFDF
:1031200098F0BE8AF9C5C7F5FAC5C8F59AECA5F0BE
:10313000BE9A78EF98F0BE8AF9C5C7F5FAC5C8F50A
:10314000CFEC9FF0BE9A78EF98F0BE8AF9C5C7F52C
:10315000FAC5C8F578ECA3F0BE9A78EF98F0BE8A6D
:10316000F9C5BDF5FAC5BEF503ECADF00601266F55
:10317000BE9A78EF98F0BE9A520E0501F16F2B0EB1
:10318000F06F000EE82EFED7F02FFCD7F12FFAD704
:103190000000BE8A520E0501F16F2B0EF06F000E7B
:1031A000E82EFED7F02FFCD7F12FFAD7000078EFEA
:1031B00098F0F4C5F0F5F5C5F1F5F6C5F2F5F7C5EB
:1031C000F3F50501F351000AD8B403EF99F0BBEF12
:1031D00098F0F151000AD8B4F0EF98F0BBEF98F0F6
:1031E000F0511A0AD8B49BEF98F0380AD8B4A5EF7A
:1031F00098F0110AD8B491EF98F0760AD8B4AFEFEE
:1032000098F0BBEF98F0F251000AD8B4E9EF98F0CB
:10321000BBEF98F02605D8A410EF99F012EF99F0C3
:1032200078EF98F045EF99F0BE8AF9C5C7F5FAC571
:10323000C8F551ECAAF0BE9A78EF98F0BE8AF9C5AD
:10324000C7F5FAC5C8F5D7ECA9F0BE9A78EF98F0A3
:10325000BE8AF9C5BDF5FAC5BEF503ECADF00601B1
:10326000266FBE9A78EF98F0BE9A520E0501F16F64
:103270002B0EF06F000EE82EFED7F02FFCD7F12FAB
:10328000FAD70000BE8ACAEF98F0F4C5F0F5F5C58C
:10329000F1F5F6C5F2F5F7C5F3F50501F351000AAE
:1032A000D8B46BEF99F034EF99F0F151000AD8B42B
:1032B0005CEF99F034EF99F0F051240AD8B414EF90
:1032C00099F0010AD8B41EEF99F0600AD8B428EF3B
:1032D00099F034EF99F0F251000AD8B455EF99F013
:1032E00034EF99F0FEEFFFF040C50FF541C510F542
:1032F00042C511F543C512F540C513F541C514F596
:1033000042C515F543C516F504EC91F00FC55CF503
:1033100010C55DF511C55EF512C55FF55CC50FF50D
:103320005DC510F55EC511F55FC512F55CC513F5F9
:103330005DC514F55EC515F55FC516F504EC91F095
:103340000FC548F510C549F511C54AF512C54BF52D
:103350003C0E136E6C0E146E360E156E360E166E17
:103360005CC50FF55DC510F55EC511F55FC512F5BD
:1033700004EC91F00FC528F510C529F511C52AF503
:1033800012C52BF5CF0E2C6E070E2D6E500E2E6E25
:10339000B90E2F6E35EC8AF028C544F529C545F5E0
:1033A0002AC546F52BC547F55CC50FF55DC510F57B
:1033B0005EC511F55FC512F540C513F541C514F59D
:1033C00042C515F543C516F504EC91F00FC558F547
:1033D00010C559F511C55AF512C55BF5AB0E2C6E2B
:1033E000AA0E2D6E2A0E2E6EBE0E2F6E840E136E3A
:1033F000880E146E080E156E3C0E166E5CC50FF529
:103400005DC510F55EC511F55FC512F504EC91F0D0
:103410000FC528F510C529F511C52AF512C52BF5DC
:1034200035EC8AF028C54CF529C54DF52AC54EF571
:103430002BC54FF548C513F549C514F54AC515F513
:103440004BC516F558C50FF559C510F55AC511F5F8
:103450005BC512F504EC91F00FC550F510C551F5A0
:1034600011C552F512C553F540C52CF541C52DF5D2
:1034700042C52EF543C52FF558C513F559C514F5AA
:103480005AC515F55BC516F54CC50FF54DC510F5BC
:103490004EC511F54FC512F504EC91F00FC528F596
:1034A00010C529F511C52AF512C52BF535EC8AF0A2
:1034B00028C554F529C555F52AC556F52BC557F528
:1034C00054C528F555C529F556C52AF557C52BF518
:1034D00044C513F545C514F546C515F547C516F59C
:1034E00050C50FF551C510F552C511F553C512F56C
:1034F00004EC91F00FC52CF510C52DF511C52EF576
:1035000012C52FF535EC8AF028C540F529C541F5DF
:103510002AC542F52BC543F5120020EE04F00C50ED
:10352000D9260D50DA22DF50166E16C510F520EEA2
:1035300004F00E50D9260F50DA2210461046DF5004
:103540001018C30B1018DF6E16B8A9EF9AF0ADEF84
:103550009AF0106A102AAEEF9AF0106A20EE04F08A
:103560000E50D9260F50DA22DF501018FE0B10181B
:10357000DF6E16BABEEF9AF0C2EF9AF0106A102A08
:10358000C3EF9AF0106A20EE04F00E50D9260F50C7
:10359000DA221046DF501018FD0B1018DF6E16BC33
:1035A000D4EF9AF0D8EF9AF0106A102AD9EF9AF077
:1035B000106A20EE04F00E50D9260F50DA22103295
:1035C0001032DF5010187F0B1018DF6E16BEEBEFB5
:1035D0009AF0EFEF9AF0106A102AF0EF9AF0106A62
:1035E00020EE04F00E50D9260F50DA22103A104681
:1035F0001046DF501018BF0B1018DF6E20EE01F0E0
:103600000C50D9260D50DA22DF50106E070E10161E
:103610001050126E136A146A156A14C515F513C595
:1036200014F512C513F5126A0CC5D9F40DC5DAF4F8
:10363000DF50106E1050121220EE04F00E50D926FA
:103640000F50DA22DFA027EF9BF029EF9BF06AEF03
:103650009BF0050ED8901236133614361536E82E28
:103660002AEF9BF020EE03F00C50D9260D50DA2201
:10367000DF50106E1F0E10161050121214C515F5E3
:1036800013C514F512C513F5126A20EE02F00C50A2
:10369000D9260D50DA22DF50106E10501212050E8E
:1036A000D8901236133614361536E82E50EF9BF0AC
:1036B00020EE01F00C50D9260D50DA22DF50106EAA
:1036C000D8901032D8901032D89010321F0E1016A9
:1036D000105012120EC5D9F40FC5DAF412C5DEF47B
:1036E00013C5DEF414C5DEF415C5DEF4770E016EE5
:1036F000060E026E080E0C24036E000E0D20046EE2
:1037000020EE04F00E50D9260F50DA22DF30E832D6
:103710000F0B106E116A850E1024F66EEF0E11203D
:10372000F76EF86A000EF8220800F550056E066A7A
:10373000ABECAFF020EE05F00E50D9260F50DA2298
:10374000770EDE6E060EDD6E120093C52DF594C564
:103750002EF595C52FF596C530F520C631F521C655
:1037600032F51EC633F51FC634F5000E366E000E58
:10377000356E020E376E5BECA9F04B0E136E7E0EAB
:10378000146E310E156E3D0E166E97C50FF598C569
:1037900010F599C511F59AC512F504EC91F00FC515
:1037A00028F510C529F511C52AF512C52BF5000E0F
:1037B0002C6E000E2D6E020E2E6EC30E2F6E35EC8B
:1037C0008AF028C57FF629C580F62AC581F62BC563
:1037D00082F67FC60FF580C610F581C611F582C648
:1037E00012F5350E136EFA0E146E8E0E156E3C0E1B
:1037F000166E04EC91F00FC510F610C511F611C548
:1038000012F612C513F610C679F511C67AF512C66E
:103810007BF513C67CF5C0EC87F079C59BF57AC5BE
:103820009CF57BC59DF57CC59EF5000E136E000EC4
:10383000146E480E156E420E166E9BC50FF59CC594
:1038400010F59DC511F59EC512F504EC91F00FC55C
:103850002CF510C52DF511C52EF512C52FF593C504
:1038600001F594C502F5036A046A000E9EECA2F00D
:1038700001C528F502C529F503C52AF504C52BF5B0
:1038800035EC8AF028C538F529C539F52AC53AF549
:103890002BC53BF5D7ECA7F038C520F639C521F686
:1038A00010C679F511C67AF512C67BF513C67CF5FC
:1038B00039EC85F079C59FF57AC5A0F57BC5A1F5F2
:1038C0007CC5A2F5000E136E000E146E480E156E28
:1038D000420E166E9FC50FF5A0C510F5A1C511F5D6
:1038E000A2C512F504EC91F00FC52CF510C52DF50D
:1038F00011C52EF512C52FF595C501F596C502F532
:10390000036A046A000E9EECA2F001C528F502C508
:1039100029F503C52AF504C52BF535EC8AF028C531
:1039200038F529C539F52AC53AF52BC53BF5D7EC4D
:10393000A7F038C51EF639C51FF693C52DF594C5F9
:103940002EF595C52FF596C530F520C631F521C663
:1039500032F51EC633F51FC634F5F80E366E000E6E
:10396000356E020E376E5BECA9F0120093C52DF593
:1039700094C52EF595C52FF596C530F524C631F5BD
:1039800025C632F522C633F523C634F5000E366E51
:10399000000E356E020E376E5BECA9F0B80E136E9A
:1039A0001E0E146E850E156E3F0E166E97C50FF522
:1039B00098C510F599C511F59AC512F504EC91F06A
:1039C0000FC528F510C529F511C52AF512C52BF527
:1039D000000E2C6E000E2D6E020E2E6EC30E2F6E7C
:1039E00035EC8AF028C583F629C584F62AC585F604
:1039F0002BC586F683C60FF584C610F585C611F56E
:103A000086C612F5350E136EFA0E146E8E0E156EF6
:103A10003C0E166E04EC91F00FC514F610C515F6A9
:103A200011C516F612C517F614C679F515C67AF53E
:103A300016C67BF517C67CF5C0EC87F079C59BF5FB
:103A40007AC59CF57BC59DF57CC59EF5000E136E71
:103A5000000E146E480E156E420E166E9BC50FF5C5
:103A60009CC510F59DC511F59EC512F504EC91F0AD
:103A70000FC52CF510C52DF511C52EF512C52FF566
:103A800093C501F594C502F5036A046A000E9EEC25
:103A9000A2F001C528F502C529F503C52AF504C51C
:103AA0002BF535EC8AF028C538F529C539F52AC536
:103AB0003AF52BC53BF5D7ECA7F038C524F639C548
:103AC00025F614C679F515C67AF516C67BF517C620
:103AD0007CF539EC85F079C59FF57AC5A0F57BC5F5
:103AE000A1F57CC5A2F5000E136E000E146E480EF3
:103AF000156E420E166E9FC50FF5A0C510F5A1C537
:103B000011F5A2C512F504EC91F00FC52CF510C506
:103B10002DF511C52EF512C52FF595C501F596C5E4
:103B200002F5036A046A000E9EECA2F001C528F5B6
:103B300002C529F503C52AF504C52BF535EC8AF035
:103B400028C538F529C539F52AC53AF52BC53BF501
:103B5000D7ECA7F038C522F639C523F693C52DF565
:103B600094C52EF595C52FF596C530F524C631F5CB
:103B700025C632F522C633F523C634F5F80E366E67
:103B8000000E356E020E376E5BECA9F0120000C617
:103B90002AF501C62BF502C62CF503C62DF51AC56C
:103BA0002AF51BC52BF51CC52CF51DC52DF5810E61
:103BB0001E6EFF0E1F6E2AC520F52BC521F52CC5E4
:103BC00022F52DC523F5180EEBEF9DF0D89023328A
:103BD000223221322032E82EE6EF9DF020501E24C2
:103BE000286E000E1F20296E29BE00EF9EF029507E
:103BF00009E1170E285CD8A000EF9EF002EF9EF0BE
:103C00000CEF9EF01AC51AF51BC51BF51CC51CF55B
:103C10001DC51DF5CFEF9EF029BE11EF9EF013EFED
:103C20009EF083EF9EF028C51EF5FF0E1F6EFF0E5F
:103C3000206E7F0E216E000E226E1E6622EF9EF019
:103C40002AEF9EF022342232213220321F321E2EE1
:103C50001DEF9EF01FC524F520C525F521C526F5CD
:103C600022C527F524502A141E6E25502B141F6ED2
:103C700026502C14206E27502D14216E1E501F101C
:103C800020102110D8A447EF9EF049EF9EF04BEF93
:103C90009EF002EF9EF02AC51EF52BC51FF52CC520
:103CA00020F52DC521F5200E5BEF9EF0D890213236
:103CB00020321F321E32E82E56EF9EF01E501F108B
:103CC00020102110D8B467EF9EF069EF9EF071EFDD
:103CD0009EF024502A2625502B2226502C22275095
:103CE0002D22241C1E6E251C1F6E261C206E271CD8
:103CF000216E1E502A161F502B1620502C162150B4
:103D00002D16C7EF9EF02AC51EF52BC51FF52CC535
:103D100020F52DC521F5200E93EF9EF0D89021328D
:103D200020321F321E32E82E8EEF9EF01E501F10E2
:103D300020102110D8A49FEF9EF0A1EF9EF0ABEFD2
:103D40009EF0000E2A6E000E2B6E000E2C6E000EE2
:103D50002D6EC7EF9EF0D8902A341E6E2B341F6E46
:103D60002C34206E2D34216E1E501F102010211077
:103D7000D8B4BDEF9EF0BFEF9EF0C7EF9EF0000EEF
:103D80002A6E000E2B6E800E2C6EBF0E2D6E2AC575
:103D90001AF52BC51BF52CC51CF52DC51DF51200FC
:103DA00038C50FF539C510F53AC511F53BC512F503
:103DB00038C513F539C514F53AC515F53BC516F5E3
:103DC00004EC91F00FC550F510C551F511C552F531
:103DD00012C553F550C50FF551C510F552C511F573
:103DE00053C512F550C513F551C514F552C515F557
:103DF00053C516F504EC91F00FC54CF510C54DF503
:103E000011C54EF512C54FF5170E136E9A0E146EAE
:103E1000CC0E156E370E166E50C50FF551C510F548
:103E200052C511F553C512F504EC91F00FC528F5F4
:103E300010C529F511C52AF512C52BF53F0E2C6EBC
:103E4000040E2D6EB60E2E6EBA0E2F6E35EC8AF065
:103E500028C53CF529C53DF52AC53EF52BC53FF5DE
:103E6000000E2C6E000E2D6E800E2E6E3F0E2F6EED
:103E7000000E136E000E146E000E156EBF0E166E41
:103E800050C50FF551C510F552C511F553C512F5C2
:103E900004EC91F00FC528F510C529F511C52AF5D8
:103EA00012C52BF535EC8AF028C540F529C541F53A
:103EB0002AC542F52BC543F550C513F551C514F578
:103EC00052C515F553C516F54CC50FF54DC510F582
:103ED0004EC511F54FC512F504EC91F00FC544F530
:103EE00010C545F511C546F512C547F59F0E136E71
:103EF000AA0E146E2A0E156E3D0E166E4CC50FF5E9
:103F00004DC510F54EC511F54FC512F504EC91F0F5
:103F10000FC52CF510C52DF511C52EF512C52FF5C1
:103F200040C528F541C529F542C52AF543C52BF5FD
:103F300035EC8AF028C548F529C549F52AC54AF562
:103F40002BC54BF548C528F549C529F54AC52AF5BD
:103F50004BC52BF53CC513F53DC514F53EC515F510
:103F60003FC516F544C50FF545C510F546C511F515
:103F700047C512F504EC91F00FC52CF510C52DF5D1
:103F800011C52EF512C52FF535EC8AF028C538F588
:103F900029C539F52AC53AF52BC53BF51200E10EC6
:103FA000016E050E026EC7C503F5C8C504F5000E07
:103FB000066E020E056EABECAFF0DD0E016E050E67
:103FC000026E020E0501C725036E000EC821046EA5
:103FD000000E066E040E056EABECAFF0710E05011F
:103FE000E15D170EE259D8A0F8EF9FF0FAEF9FF0CD
:103FF000FEEF9FF0170EE26F700EE16FE1C501F565
:10400000E2C502F5036A046A000E9EECA2F001C547
:10401000D9F502C5DAF503C5DBF504C5DCF5000EFC
:104020000501946F780E936F000E966F500E956F8A
:10403000D9C597F5DAC598F5DBC599F5DCC59AF5CC
:10404000A5EC9BF0C90E0501A66F050EA76F000E2B
:10405000A96F060EA86FFA0EAA6FFF0EAB6FE1C52F
:10406000ACF5E2C5ADF553ECA7F0000E236E3C0EA7
:10407000226E000E256E910E246E880E266EFF0EA7
:10408000276EFF0E296E2868000E2B6E000E2A6E1A
:10409000A4ECADF0000E236E3C0E226E000E256ED9
:1040A000910E246EC90E266E050E276EFF0E296E28
:1040B0002868000E2B6E000E2A6EA4ECADF0000EE8
:1040C000236E3C0E226E000E256EAA0E246EE00EAC
:1040D000266EFF0E276EFF0E296E2868000E2B6ECF
:1040E000000E2A6EA4ECADF0000E356E0A0E346E92
:1040F000000E376E0A0E366EDDC538F5DEC539F5B1
:10410000DFC53AF5E0C53BF5CAEC96F0D10E0501E6
:10411000A66F050EA76F000EA96F060EA86FD90E29
:10412000AA6FFF0EAB6FDDC5ACF5DEC5ADF5DFC523
:10413000AEF5E0C5AFF553ECA7F0000E236E320EDE
:10414000226E000E256ECD0E246E880E266EFF0E9A
:10415000276EFF0E296E2868000E2B6E000E2A6E49
:10416000A4ECADF0000E236E320E226E000E256E12
:10417000CD0E246ED10E266E050E276EFF0E296E13
:104180002868000E2B6E000E2A6EA4ECADF0120013
:104190001F0E0F64CEEFA0F0D0EFA0F0BDEFA1F0A6
:1041A0007E0E0F64D6EFA0F0D8EFA0F0DAEFA0F00B
:1041B000BDEFA1F00F502A0DF3C414F5F4C415F5AA
:1041C000C00E1424166EFA0E1520176EE00E16247B
:1041D000186EEF0E1720196E000E1F6E000E1E6E69
:1041E0001EC514F51FC515F5D89014361536145094
:1041F0001824166E15501920176E16C5F6F417C53B
:10420000F7F4000EF86E0900F5C41AF50A00F5C4BB
:104210001BF5000E216E000E206E20500908146E52
:10422000010E156E000E166E142A1AEFA1F0D8902A
:1042300015361636142E17EFA1F01A5015161B500E
:10424000161615501610D8B428EFA1F02AEFA1F0D9
:104250004AEFA1F00DC514F50EC515F5141E151E77
:10426000144A152A1E50145E1F50155AEF0E1424BE
:10427000036E000E1520046E20500B24056E215095
:104280000C20066E10C507F511C508F503ECAFF05C
:1042900074EFA1F01050121809E111501318D8B49E
:1042A00054EFA1F056EFA1F074EFA1F00DC514F595
:1042B0000EC515F5141E151E144A152A1E50145E3F
:1042C0001F50155AEF0E1424036E000E1520046EB5
:1042D00020500B24056E21500C20066E12C507F5E8
:1042E00013C508F503ECAFF0204A212A215009E15B
:1042F0000A0E205CD8A07FEFA1F081EFA1F00DEFB6
:10430000A1F01E4A1F2A1F5009E1150E1E5CD8A0FD
:104310008CEFA1F08EEFA1F0F0EFA0F0000E1D6E7B
:10432000000E1C6E0DC514F50EC515F5141E151ED8
:10433000144A152A1C50145E1D50155AEF0E1424F1
:10434000036E000E1520046E0A0E0B24056E000E7F
:104350000C20066E12C507F513C508F503ECAFF087
:104360001C4A1D2A1D5009E1150E1C5CD8A0BBEF8C
:10437000A1F0BDEFA1F092EFA1F012001DBEC3EFBE
:10438000A1F0C6EFA1F0010EC7EFA1F0000E246E60
:104390000501FCBFCEEFA1F0D0EFA1F0D1EFA1F06D
:1043A000FD93FCBFD8EFA1F0D6EFA1F0DEEFA1F0B6
:1043B000000E216E010E206EE2EFA1F0FBC520F58C
:1043C000FCC521F51AC622F51BC623F52450D8B426
:1043D000ECEFA1F0EEEFA1F005EFA2F02206D8A0DD
:1043E00023062450D8A4F7EFA1F0F9EFA1F0FFEFD6
:1043F000A1F0000E1F6E2B0E1E6E03EFA2F0000E3A
:104400001F6E2D0E1E6E1EC524F5000E266E4F0E5D
:10441000256E000E0601766F3EEFA2F02506D8A0AD
:104420002606270E2524D96E060E2620DA6E1CC518
:1044300001F51DC502F5000E046E0A0E036E56EC62
:10444000ACF001C507F502C508F5A2ECB0F00750C5
:10445000300FDF6E2006D8A021062206D8A0230642
:104460001CC501F51DC502F5000E046E0A0E036E93
:1044700097ECABF001C51CF502C51DF526BE49EF52
:10448000A2F0265008E12504D8A049EFA2F04BEF96
:10449000A2F076EFA2F01C501D10D8A452EFA2F0AB
:1044A00054EFA2F00EEFA2F021BE61EFA2F0215076
:1044B00006E12004D8B05FEFA2F061EFA2F00EEFAA
:1044C000A2F023BE6CEFA2F0235008E12204D8A092
:1044D0006CEFA2F06EEFA2F076EFA2F00501FDB353
:1044E00074EFA2F076EFA2F00EEFA2F02450D8B451
:1044F0007CEFA2F07EEFA2F089EFA2F02506D8A013
:104500002606270E2524D96E060E2620DA6E24C52F
:10451000DFF41AC511F51BC512F5270E2524136EFD
:10452000060E2620146E22C515F523C516F5F9ECE6
:10453000ABF011C51AF512C51BF51200096E095032
:10454000D8B4A5EFA2F0A7EFA2F0C9EFA2F004BE85
:10455000AEEFA2F0ACEFA2F0C9EFA2F001C505F5F5
:1045600002C506F503C507F504C508F5051E061EB8
:10457000071E081E052A000E06220722082205C56E
:104580000BF506C50CF507C50DF508C50EF5D1EF01
:10459000A2F001C50BF502C50CF503C50DF504C568
:1045A0000EF50150021003100410D8A4DAEFA2F0A7
:1045B000DCEFA2F0E6EFA2F0000E016E000E026E3C
:1045C000000E036E000E046E77EFA3F0960E0A6ED7
:1045D000F0EFA2F00A2AD8900E320D320C320B32D4
:1045E000000E0B14056E000E0C14066E000E0D145A
:1045F000076EFE0E0E14086E055006100710081008
:10460000D8A405EFA3F007EFA3F0EAEFA2F015EFAF
:10461000A3F00A2A010E0B26000E0C220D220E22F8
:10462000D8900E320D320C320B32000E0B14056E88
:10463000000E0C14066E000E0D14076EFF0E0E1405
:10464000086E0550061007100810D8A42AEFA3F032
:104650002CEFA3F009EFA3F034EFA3F00A06D890F3
:104660000B360C360D360E360DBE39EFA3F03BEF90
:10467000A3F043EFA3F0020E0A6041EFA3F043EF73
:10468000A3F02EEFA3F00AB048EFA3F04AEFA3F097
:104690004BEFA3F00D9ED8900A320AC505F5066AC5
:1046A000076A086A05C508F5076A066A056A0550BB
:1046B0000B1206500C1207500D1208500E12095022
:1046C000D8B465EFA3F067EFA3F06FEFA3F004BEDB
:1046D0006EEFA3F06CEFA3F06FEFA3F00E8E0BC59F
:1046E00001F50CC502F50DC503F50EC504F5120064
:1046F000EE0E016E050E026EC7C503F5C8C504F5C2
:10470000000E066E020E056EABECAFF0050120EE5A
:1047100002F0C751D926C851DA22DF50E96F20EEE6
:1047200003F0C751D926C851DA22DF50EA6F20EED4
:1047300004F0C751D926C851DA22DF50EB6F20EEC2
:1047400005F0C751D926C851DA22DF50EC6F20EEB0
:1047500006F0C751D926C851DA22DF50ED6FC90ED5
:10476000A66F050EA76F000EA96F0B0EA86FA30E04
:10477000AA6FFF0EAB6FEAC5ACF5AD6BE9C5AEF540
:10478000AF6BEEC5B0F5EFC5B1F553ECA7F0000E79
:10479000236EC80E226E000E256ECD0E246E820E84
:1047A000266EFF0E276EFF0E296E2868000E2B6EF8
:1047B000000E2A6EA4ECADF0000E236EC80E226E21
:1047C000000E256ECD0E246EC90E266E050E276EC8
:1047D000FF0E296E2868000E2B6E000E2A6EA4ECC8
:1047E000ADF0D90E0501A66F050EA76F000EA96FDB
:1047F000090EA86F8E0EAA6FFF0EAB6FEBC5ACF55E
:10480000AD6BECC5AEF5AF6BEDC5B0F5B16B53EC70
:10481000A7F0000E236E6E0E226E000E256E140E93
:10482000246E830E266EFF0E276EFF0E296E2868FB
:10483000000E2B6E000E2A6EA4ECADF0000E236E5F
:10484000780E226E000E256E140E246ED90E266E82
:10485000050E276EFF0E296E2868000E2B6E000EC7
:104860002A6EA4ECADF0120016501A5C17501B58BB
:10487000D8B03DEFA4F03FEFA4F063EFA4F01850E0
:104880001418146E19501518156E18501418186E47
:1048900019501518196E18501418146E195015184F
:1048A000156E1A501618166E1B501718176E1A50E0
:1048B00016181A6E1B5017181B6E1A501618166E03
:1048C0001B501718176E1450185C2B6E1550195882
:1048D0002C6E16501A5C296E17501B582A6E2CBE6F
:1048E00076EFA4F074EFA4F07EEFA4F021682268C4
:1048F0002B6C2C1ED8B02C2A82EFA4F0000E226E56
:10490000010E216E29502A10D8B489EFA4F08BEF44
:10491000A4F0E6EFA4F029C51FF52AC520F5D8902C
:104920001F3620362B501F5C276E2C502058286EC7
:1049300014C523F515C524F5000E266E000E256E50
:10494000DBEFA4F023C50BF524C50CF52550162488
:104950000D6E265017200E6E1CC50FF51DC510F5E7
:104960001EC511F5D4ECAEF028BEB9EFA4F0BBEF34
:10497000A4F0CCEFA4F0215023262250242229C5F4
:104980001FF52AC520F5D8901F3620361F50275C0A
:10499000276E20502858286E2BC51FF52CC520F5F2
:1049A000D8901F36203627501F24276E28502020ED
:1049B000286E254A262A2550295C26502A58D8B028
:1049C000E4EFA4F0E6EFA4F0A2EFA4F0120014507C
:1049D000185C15501958D8B0F0EFA4F0F2EFA4F01D
:1049E00016EFA5F018501418146E19501518156EFE
:1049F00018501418186E19501518196E18501418EC
:104A0000146E19501518156E1A501618166E1B5084
:104A10001718176E1A5016181A6E1B5017181B6E9F
:104A20001A501618166E1B501718176E1450185C73
:104A3000296E155019582A6E16501A5C2B6E175095
:104A40001B582C6E2CBE29EFA5F027EFA5F031EFF7
