:040000000DEF00F010
:04000800F0EF9AF08B
:06001800FF0076EF9CF0F2
:10FEF6000000010203040506070850012447504785
:10FF06004C4C2C2531355B5E2C5D2C25632C253124
:10FF1600355B5E2C5D2C25632C2531355B5E2C5DB7
:10FF26002C25632C252A5B5E2A5D2A00646F6E6E83
:10FF36006565732072656375203A2025733B20251D
:10FF4600730A0D0024505352463130332C30342C72
:10FF560030302C30302C30312A323100245053527C
:10FF6600463130332C30302C30302C30302C303180
:10FF76002A32350024505352463130332C30332C3C
:10FF860030302C30302C30312A3236002450535247
:10FF9600463130332C30322C30302C30302C30314E
:10FFA6002A323700737363616E66207265746F75EB
:10FFB600726E65203A2025640A0D000A0D206D65D3
:10FFC60073736167652072656375203A2025730A2D
:10FFD6000D00494E46494E49545900696E66696E90
:10FFE60069747900626567696E0A0D004E414E00BC
:09FFF600696E66006E616E000088
:020000040001F9
:100000000501DD6B000EDC6F38503910D8B40BEFF2
:1000100080F00DEF80F019EF80F038C5D9F439C5C4
:10002000DAF436C5DEF437C5DDF419EF80F0364A70
:10003000372A36C5D9F437C5DAF4200EDE18D8B41D
:1000400024EF80F027EF80F0010E28EF80F0000E03
:10005000E26FE36BE251E311D8A431EF80F033EFAC
:1000600080F017EF80F036C5D9F437C5DAF4DF50E9
:100070003A6E3A50E26FE36BE2C53BF5F70E3B2672
:10008000040E3B6446EF80F048EF80F017EF80F0FD
:10009000DF6B2D0EE219E311D8A451EF80F053EF7E
:1000A00080F059EF80F0010EDF6F364A372A65EF96
:1000B00080F02B0EE219E311D8A461EF80F063EF1A
:1000C00080F065EF80F055EF80F0E86B69EF80F02D
:1000D000E82BE8513624D96E000E3720DA6EDF5057
:1000E000D8B475EF80F077EF80F0ADEF80F0E85195
:1000F0003624D96E000E3720DA6EDF503A6EE10EEC
:10010000E825F66EF76AFF0EF722F86A000EF8226D
:100110000800F5503A18D8B490EF80F092EF80F0D4
:1001200068EF80F0E8513624D96E000E3720DA6E81
:10013000DF503A6ED80EE825F66EF76AFF0EF7220A
:10014000F86A000EF8220800F5503A18D8B4ABEF60
:1001500080F0ADEF80F068EF80F0020EE865B3EF5D
:1001600080F0B5EF80F0E1EF80F0000EE46F000E5C
:10017000E56F800EE66F7F0EE76F38503910D8B408
:10018000C4EF80F0C6EF80F005EF88F0080EE819A4
:10019000D8B4CDEF80F0CFEF80F0D1EF80F0030E38
:1001A000E86FE85136243A6E000E37203B6E38C5B2
:1001B000D9F439C5DAF43AC5DEF43BC5DDF405EF10
:1001C00088F0E86BE5EF80F0E82BE8513624D96E33
:1001D000000E3720DA6EDF50D8B4F1EF80F0F3EF85
:1001E00080F029EF81F0E8513624D96E000E3720D7
:1001F000DA6EDF503A6EFA0EE825F66EF76AFF0EF9
:10020000F722F86A000EF8220800F5503A18D8B420
:100210000CEF81F00EEF81F0E4EF80F0E85136242E
:10022000D96E000E3720DA6EDF503A6EF20EE825F6
:10023000F66EF76AFF0EF722F86A000EF822080041
:10024000F5503A18D8B427EF81F029EF81F0E4EFA8
:1002500080F0030EE819D8A430EF81F032EF81F07E
:10026000A0EF81F0C00E106EFF0E116E2EECA2F00A
:1002700010C5E4F511C5E5F512C5E6F513C5E7F5BA
:1002800038503910D8B447EF81F049EF81F005EFCD
:1002900088F00501E8513626000E372236C5D9F41C
:1002A00037C5DAF4280EDE18D8A459EF81F05BEFD9
:1002B00081F096EF81F0E86B5FEF81F0E82BE85179
:1002C0003624D96E000E3720DA6EDF50D8B46BEFCB
:1002D00081F06DEF81F07CEF81F0E8513624D96E2A
:1002E000000E3720DA6E290EDE18D8A47AEF81F0DE
:1002F0007CEF81F05EEF81F0E8513624D96E000E7C
:100300003720DA6E290EDE18D8A489EF81F08BEF42
:1003100081F096EF81F0E8513A6E3B6A010E3A2681
:10032000000E3B223A5036263B50372238C5D9F4CE
:1003300039C5DAF436C5DEF437C5DDF405EF88F0EB
:10034000E36B000EE26F000EE46F000EE56F000E2F
:10035000E66F000EE76FDA6BDB6BE16B000EE06FB0
:10036000E86BB4EF81F0E82BE8513624D96E000E2B
:100370003720DA6E300EDE18D8B4C1EF81F0C3EF4B
:1003800081F0B3EF81F0E851D8B4C9EF81F0CBEF41
:1003900081F075EF85F0E8513624D96E000E3720D4
:1003A000DA6E780EDE18D8B4D8EF81F0DAEF81F08B
:1003B000E9EF81F0E8513624D96E000E3720DA6E6D
:1003C000580EDE18D8A4E7EF81F0E9EF81F075EF61
:1003D00085F0E85136243A6E000E37203B6E010E50
:1003E0003A24D96E000E3B20DA6EDF503C6E3C5052
:1003F000106E116AD9EC9FF010501110D8A403EFC1
:1004000082F005EF82F01DEF82F00501E8513624FD
:100410003A6E000E37203B6E010E3A24D96E000E64
:100420003B20DA6E2E0EDE18D8B419EF82F01BEFE7
:1004300082F01DEF82F099EF84F0E8C5DAF505014E
:10044000E82BE8513624D96E000E3720DA6E300ED4
:10045000DE18D8B42EEF82F030EF82F01FEF82F07A
:10046000E8513624D96E000E3720DA6E700EDE1891
:10047000D8B43DEF82F03FEF82F0B4EF83F0E85163
:100480003624D96E000E3720DA6E500EDE18D8A44E
:100490004CEF82F04EEF82F050EF82F0B4EF83F039
:1004A000E8513624D96E000E3720DA6E2E0EDE1893
:1004B000D8A45DEF82F05FEF82F065EF82F0DF8914
:1004C000E8C5DBF5E82BB4EF83F0E8513624D96EAC
:1004D000000E3720DA6EDF503A6E3A50106E116A15
:1004E000D9EC9FF010501110D8B479EF82F07BEF67
:1004F00082F099EF84F00501DE6BE8513624D96E65
:10050000000E3720DA6EDF503A6E3A50106E116AE4
:10051000DEECA1F010501110D8B491EF82F093EFFF
:1005200082F09FEF82F00501E8513624D96E000E6B
:100530003720DA6EDF50D00FDE6FB1EF82F00501A9
:10054000E8513624D96E000E3720DA6EDF503A6E4D
:100550003A50106E116AC7ECA1F01050C90F050196
:10056000DE6FE3BFBFEF82F0E35107E1080EE25D0B
:10057000D8B0BDEF82F0BFEF82F0DEEF82F0E25143
:1005800007083A6ED8903A36D8903A36DEC53BF531
:100590003C6A3D6A3E6A3A2AD3EF82F0D8903B36F5
:1005A0003C363D363E363A2ECEEF82F03B50E413D9
:1005B0003C50E5133D50E6133E50E713E24BE32B6E
:1005C000040EE027000EE123E82B30EF82F0E85123
:1005D0003624D96E000E3720DA6E300EDE18D8A41D
:1005E000F4EF82F0F6EF82F005EF83F0E251E311D1
:1005F000D8A4FDEF82F0FFEF82F005EF83F0FC0E50
:10060000E027FF0EE123B3EF83F0E8513624D96EE3
:10061000000E3720DA6EDF503A6E3A50106E116AD3
:10062000D9EC9FF010501110D8B419EF83F01BEFE4
:1006300083F082EF83F00501DE6BE8513624D96E3A
:10064000000E3720DA6EDF503A6E3A50106E116AA3
:10065000DEECA1F010501110D8B431EF83F033EF7D
:1006600083F03FEF83F00501E8513624D96E000E88
:100670003720DA6EDF50D00FDE6F51EF83F00501C7
:10068000E8513624D96E000E3720DA6EDF503A6E0C
:100690003A50106E116AC7ECA1F01050C90F050155
:1006A000DE6FE3BF5FEF83F0E35107E1080EE25D29
:1006B000D8B05DEF83F05FEF83F07EEF83F0E2511F
:1006C00007083A6ED8903A36D8903A36DEC53BF5F0
:1006D0003C6A3D6A3E6A3A2A73EF83F0D8903B3613
:1006E0003C363D363E363A2E6EEF83F03B50E413F7
:1006F0003C50E5133D50E6133E50E713E24BE32B2D
:10070000B3EF83F00501E8513A6E3B6ADB513C6E72
:100710003D6A010E3C26000E3D223A503C1807E18E
:100720003B503D18D8A497EF83F099EF83F0BBEFCF
:1007300083F0DB513A6E3B6ADA513C6E3D6A010E42
:100740003C26000E3D223A503C1807E13B503D1834
:10075000D8A4ADEF83F0AFEF83F0BBEF83F0DAC541
:10076000E8F599EF84F0E82BDFB9B9EF83F0BBEF40
:1007700083F0E7EF82F0E8513626000E3722E86B6F
:1007800036C5D9F437C5DAF4700EDE18D8B4CBEF1D
:1007900083F0CDEF83F0DCEF83F036C5D9F437C5B5
:1007A000DAF4500EDE18D8B4D8EF83F0DAEF83F025
:1007B000DCEF83F099EF84F0E82B20EE01F0365067
:1007C000D9263750DA222B0EDE18D8A4EAEF83F0B0
:1007D000ECEF83F0EFEF83F0E82B00EF84F020EEF6
:1007E00001F03650D9263750DA222D0EDE18D8A463
:1007F000FCEF83F0FEEF83F000EF84F0DF87E82B5F
:10080000E8513624D96E000E3720DA6EDF503A6E8A
:100810003A50106E116ADEECA1F010501110D8A4FD
:1008200014EF84F016EF84F01AEF84F00501E86B02
:1008300099EF84F00501E8513626000E3722E86B67
:1008400023EF84F0E82BE8513624D96E000E3720D0
:10085000DA6E300EDE18D8B430EF84F032EF84F068
:1008600022EF84F0E36B000EE26F61EF84F005018C
:10087000E851D8B43EEF84F040EF84F04DEF84F0BF
:10088000E2C510F5E3C511F5136A0A0E126E08EC05
:10089000A2F010C5E2F511C5E3F50501E8513624D3
:1008A000D96E000E3720DA6EDF503A6ED00E3A2441
:1008B0003B6E3C6AFF0E3C223B50E2273C50E32358
:1008C000E82BE8513624D96E000E3720DA6EDF505F
:1008D0003A6E3A50106E116ADEECA1F01050111011
:1008E000D8A475EF84F077EF84F037EF84F005013A
:1008F000E851D8A47EEF84F080EF84F08AEF84F092
:10090000000E366E000E376E000E386E000E396E19
:100910003CEF88F0DFA78FEF84F091EF84F095EF44
:1009200084F0E26DE31FD8B0E32BE251E027E351FE
:10093000E12338503910D8B4A0EF84F0A2EF84F04E
:10094000B1EF84F00501E85136243A6E000E3720ED
:100950003B6E38C5D9F439C5DAF43AC5DEF43BC587
:10096000DDF40501E451E511E611E711D8A4BBEF70
:1009700084F0BDEF84F0C7EF84F0000E366E000EF9
:10098000376E000E386E000E396E3CEF88F0FF0EA9
:10099000E4153A6E000EE5153B6E000EE6153C6E52
:1009A000000EE7153D6E3D503C103B1009E1810EF5
:1009B0003A5CD8A0DEEF84F0E0EF84F0F2EF84F050
:1009C000000EE427010EE523000EE623000EE723C8
:1009D000F2EF84F0D890E437E537E637E737E00701
:1009E000D8A0E107E7AFF7EF84F0F9EF84F0EAEF82
:1009F00084F0E1AF05EF85F0830EE05DFF0EE15975
:100A0000D8B005EF85F007EF85F013EF85F0FF0E06
:100A1000E16F810EE06F000EE46F000EE56F000ED7
:100A2000E66F000EE76F810EE01908E1E129D8B406
:100A30001CEF85F01EEF85F026EF85F0D890E437A7
:100A4000E537E637E737E007D8A0E107E1BF32EF47
:100A500085F0E15109E1800EE05DD8A032EF85F02C
:100A600034EF85F044EF85F0000EE46F000EE56F83
:100A7000000EE66F000EE76FE16B800EE06FDD6B3E
:100A8000220EDC6F05EF88F0090E3A6ED890E7333E
:100A9000E633E533E4333A2E46EF85F0FF0EE417F4
:100AA000FF0EE5177F0EE617000EE7177F0EE02515
:100AB0003A6E000EE1213B6EFF0E3A143C6E3D6A29
:100AC0003E6A3F6A170ED8903C363D363E363F367A
:100AD000E82E63EF85F03C50E4133D50E5133E50A3
:100AE000E6133F50E71305EF88F0DFB97AEF85F0A2
:100AF0007CEF85F08EEF85F036C5D9F437C5DAF492
:100B00002E0EDE18D8A487EF85F089EF85F08EEFE2
:100B100085F0DF89364A372A75EF85F036C5D9F476
:100B200037C5DAF4DF503A6E3A50106E116ADEECD7
:100B3000A1F010501110D8A4A0EF85F0A2EF85F01D
:100B4000A4EF85F0F4EF85F00501DF83090EE219CB
:100B5000E311D8B4AEEF85F0B0EF85F0E7EF85F0A4
:100B6000DFA9B5EF85F0B7EF85F0BAEF85F0E007C4
:100B7000D8A0E107E24BE32BE4C510F5E5C511F57C
:100B8000E6C512F5E7C513F50A0E146E000E156ED4
:100B9000000E166E000E176EE5EC9EF010C5E4F523
:100BA00011C5E5F512C5E6F513C5E7F536C5D9F467
:100BB00037C5DAF4DF503A6ED00E3A263A500501C6
:100BC000E427000EE523E623E723F0EF85F0DFB905
:100BD000ECEF85F0EEEF85F0F0EF85F0E04BE12BE8
:100BE000364A372A75EF85F00501E36B000EE26F98
:100BF00036C5D9F437C5DAF4650EDE18D8B403EF7C
:100C000086F005EF86F012EF86F036C5D9F437C5C9
:100C1000DAF4450EDE18D8A410EF86F012EF86F055
:100C20009BEF86F0364A372A36C5D9F437C5DAF451
:100C30002D0EDE18D8A41FEF86F021EF86F026EFE8
:100C400086F0DF87364A372A35EF86F036C5D9F485
:100C500037C5DAF42B0EDE18D8A431EF86F033EF67
:100C600086F035EF86F0364A372A36C5D9F437C5CF
:100C7000DAF4300EDE18D8B440EF86F042EF86F09A
:100C800033EF86F00501DE6B61EF86F036C5D9F4EF
:100C900037C5DAF4DF503A6ED00E3A260A0E050157
:100CA000E203F3C43BF5F4C43CF5E303F3503C2604
:100CB0003A503B24E26F000E3C20E36F364A372A5D
:100CC000DE2B36C5D9F437C5DAF4DF503A6E3A5028
:100CD000106E116ADEECA1F010501110D8A473EF61
:100CE00086F075EF86F046EF86F00501DE51D8A458
:100CF0007CEF86F07EEF86F090EF86F02FEEFFF32C
:100D00003650D9263750DA22300EDE18D8B48BEFA1
:100D100086F08DEF86F090EF86F03606D8A0370685
:100D2000DFA795EF86F097EF86F09BEF86F0E26DF8
:100D3000E31FD8B0E32BE251E027E351E123385021
:100D40003910D8B4A6EF86F0A8EF86F0B7EF86F09A
:100D5000DFA3ADEF86F0AFEF86F0B7EF86F038C5D2
:100D6000D9F439C5DAF436C5DEF437C5DDF4E4C5A7
:100D70001CF5E5C51DF5E6C51EF5E7C51FF5000E1A
:100D800042EC94F01CC5E4F51DC5E5F51EC5E6F57D
:100D90001FC5E7F5E4C510F5E5C511F5E6C512F583
:100DA000E7C513F5000E146E000E156E000E166EDC
:100DB000000E176E9BEC9AF0D8A0E1EF86F0E3EFFF
:100DC00086F0EDEF86F0000E366E000E376E000EE8
:100DD000386E000E396E3CEF88F00501E1BFF5EF8B
:100DE00086F0F3EF86F086EF87F0E06DE11FD8B074
:100DF000E12B1AEF87F0E4C52AF5E5C52BF5E6C52A
:100E00002CF5E7C52DF5F90E2E6E020E2F6E150E80
:100E1000306E500E316EADEC8EF02AC5E4F52BC568
:100E2000E5F52CC5E6F52DC5E7F50501F60EE0273D
:100E3000FF0EE123E1BF28EF87F0E15107E10A0E41
:100E4000E05DD8B026EF87F028EF87F0FBEF86F063
:100E500048EF87F0E4C52AF5E5C52BF5E6C52CF586
:100E6000E7C52DF5000E2E6E000E2F6E200E306E93
:100E7000410E316EADEC8EF02AC5E4F52BC5E5F5DB
:100E80002CC5E6F52DC5E7F50501E007D8A0E1077B
:100E9000E051E111D8A44FEF87F051EF87F02AEF2E
:100EA00087F0E4C510F5E5C511F5E6C512F5E7C50F
:100EB00013F5000E146E000E156E800E166E000EE9
:100EC000176E47EC96F0D8B068EF87F06AEF87F0BE
:100ED00005EF88F00501DFA170EF87F072EF87F072
:100EE0007CEF87F0000E366E000E376E800E386E87
:100EF000800E396E3CEF88F0000E366E000E376EB5
:100F0000800E386E000E396E3CEF88F0E1BF91EF35
:100F100087F0E15108E1E005D8A091EF87F093EF69
:100F200087F005EF88F0B4EF87F0E4C510F5E5C56C
:100F300011F5E6C512F5E7C513F5F90E146E020EAC
:100F4000156E150E166E500E176E9AEC8CF010C5BD
:100F5000E4F511C5E5F512C5E6F513C5E7F505019C
:100F6000F60EE027FF0EE123E15107E10A0EE05DF6
:100F7000D8B0BDEF87F0BFEF87F095EF87F0DFEFD8
:100F800087F0E4C510F5E5C511F5E6C512F5E7C52E
:100F900013F5000E146E000E156E200E166E410E27
:100FA000176E9AEC8CF010C5E4F511C5E5F512C585
:100FB000E6F513C5E7F50501E007D8A0E107E05124
:100FC000E111D8A4E6EF87F0E8EF87F0C1EF87F0F2
:100FD000FF0E106EFF0E116E7F0E126E7F0E136EDF
:100FE000E4C514F5E5C515F5E6C516F5E7C517F52D
:100FF00047EC96F0D8B0FFEF87F001EF88F005EFEF
:1010000088F00501DD6B220EDC6F0501DC51DD117E
:10101000D8B40DEF88F00FEF88F01BEF88F0DCC537
:1010200083F5DDC584F5000EE46F000EE56F800EDC
:10103000E66F7F0EE76FDFA120EF88F022EF88F0E8
:1010400034EF88F0E4C510F5E5C511F5E6C512F5F5
:10105000E7C513F591ECA1F010C5E4F511C5E5F570
:1010600012C5E6F513C5E7F5E4C536F5E5C537F570
:10107000E6C538F5E7C539F512001DC5D9F41EC51A
:10108000DAF4DEC4F6F4DDC4F7F4000EF86E0800FE
:10109000F5505E0AD8A44FEF88F051EF88F058EF72
:1010A00088F0010E286E2C6A010E2B6E5CEF88F022
:1010B0002C6A000E2B6E286A2BC533F52CC534F52F
:1010C0008EEF88F01DC5D9F41EC5DAF4DEC421F513
:1010D000DDC422F5335021263450222221C5F6F4F6
:1010E00022C5F7F4000EF86E0800F5505D0AD8A48A
:1010F0007CEF88F07EEF88F08CEF88F02B5033186F
:1011000009E12C503418D8B488EF88F08AEF88F0C1
:101110008CEF88F0AAEF88F0334A342A1DC5D9F441
:101120001EC5DAF4DEC421F5DDC422F533502126D4
:101130003450222221C5F6F422C5F7F4000EF86ED1
:101140000800F5500009D8A4A8EF88F0AAEF88F0AD
:1011500062EF88F042504310D8A4B1EF88F0B3EFAB
:1011600088F0B8EF88F07F0E276E2668BCEF88F015
:1011700042C526F543C527F5326A000E316E45504B
:10118000D8A4C5EF88F0C7EF88F0DDEF88F01FC561
:10119000D9F420C5DAF4DFC421F5020EDE26DFC45F
:1011A00022F5000EDD2221C5D9F422C5DAF4DEC411
:1011B0002DF5DDC42EF524EF8AF0000E2D6E000E05
:1011C0002E6E24EF8AF01BC512F51CC513F5B9EC81
:1011D00095F012C52FF513C530F52F2806E13028FC
:1011E000D8A4F5EF88F0F7EF88F0FBEF88F01B68E4
:1011F0001C6872EF8AF02BC535F52CC536F5BDEFAE
:1012000089F01DC5D9F41EC5DAF4DEC421F5DDC4AC
:1012100022F5355021263650222221C5F6F422C56A
:10122000F7F4000EF86E0800F5502D0AD8A41BEF55
:1012300089F01DEF89F097EF89F02B50351809E1FF
:101240002C503618D8B427EF89F029EF89F097EFA2
:1012500089F0FF0E3324216EFF0E3420226E3550AC
:10126000211809E136502218D8B439EF89F03BEF44
:1012700089F097EF89F01DC5D9F41EC5DAF4DEC4F4
:1012800021F5DDC422F53550212636502222FF0EED
:101290002124236EFF0E2220246E23C5F6F424C5DC
:1012A000F7F4000EF86E0800F5C425F5010E2524AC
:1012B000296E2A6A000E2A226EEF89F02F50291813
:1012C00007E130502A18D8A468EF89F06AEF89F056
:1012D0006CEF89F0C9EF89F0294A2A2A1DC5D9F493
:1012E0001EC5DAF4DEC421F5DDC422F53550212611
:1012F00036502222010E2126000E222221C5F6F4AC
:1013000022C5F7F4000EF86E0800F550236E246A2B
:101310002350295C2A50800A256E2450800A2558C3
:10132000D8A095EF89F097EF89F05EEF89F01DC5A1
:10133000D9F41EC5DAF4DEC421F5DDC422F535503A
:1013400021263650222221C5F6F422C5F7F4000EDC
:10135000F86E0800F550236E246A2F50231807E119
:1013600030502418D8A4B7EF89F0B9EF89F0BBEF5B
:1013700089F0C9EF89F0354A362A3350351807E12C
:1013800034503618D8A4C7EF89F0C9EF89F001EFBF
:1013900089F02850D8B4CFEF89F0D1EF89F009EF68
:1013A0008AF03350351807E134503618D8A4DBEFF3
:1013B00089F0DDEF89F0FDEF89F02D502E10D8B4C3
:1013C000E4EF89F0E6EF89F022EF8AF031502D2426
:1013D000D96E32502E20DA6E2FC5DFF431502D2415
:1013E000216E32502E20226E010E2124D96E000E65
:1013F0002220DA6EDF6A22EF8AF02FC510F530C5A1
:1014000011F51BC512F51CC513F592EC99F030EFE0
:101410008AF03350351807E134503618D8A413EF4A
:101420008AF015EF8AF017EF8AF0FDEF89F02D5062
:101430002E10D8B41EEF8AF020EF8AF022EF8AF047
:10144000E6EF89F0314A322A2650311807E1275059
:101450003218D8A42EEF8AF030EF8AF0E3EF88F04C
:101460001DC5D9F41EC5DAF43350DE263450DD2212
:101470001DC5D9F41EC5DAF4DEC4F6F4DDC4F7F4F4
:10148000000EF86E0800F5500009D8B44AEF8AF053
:101490004CEF8AF053EF8AF01DC5D9F41EC5DAF47B
:1014A000DE2A000EDD22315005017F2732508023D5
:1014B00031503210D8A45FEF8AF061EF8AF066EF06
:1014C0008AF01C6A000E1B6E72EF8AF04550D8B489
:1014D0006CEF8AF06FEF8AF0010E70EF8AF0000E69
:1014E0001B6E1C6A120039C5D9F43AC5DAF4DEC4A1
:1014F000F6F4DDC4F7F4000EF86E0800F550250A86
:10150000D8A485EF8AF087EF8AF0CEEF8BF039C54B
:10151000D9F43AC5DAF4DE2A000EDD22436A000E61
:10152000426E42504310D8A498EF8AF09BEF8AF0A5
:10153000010E9CEF8AF0000E456E39C5D9F43AC50C
:10154000DAF4DEC4F6F4DDC4F7F4000EF86E080039
:10155000F5502A0AD8A4AFEF8AF0B1EF8AF0BAEFBB
:101560008AF039C5D9F43AC5DAF4DE2A000EDD2254
:10157000010E456E39C5D9F43AC5DAF4DEC410F56A
:10158000DDC411F51CEC95F010C542F511C543F50D
:10159000D1EF8AF039C5D9F43AC5DAF4DE2A000E63
:1015A000DD2239C5D9F43AC5DAF4DEC4F6F4DDC477
:1015B000F7F4000EF86E0800F5C43DF5D00E3D2698
:1015C000090E3D64E6EF8AF0E8EF8AF0CAEF8AF090
:1015D00039C5D9F43AC5DAF4DEC4F6F4DDC4F7F45B
:1015E000000EF86E0800F550630AD8A4FAEF8AF0EE
:1015F000FCEF8AF03FEF8BF039C5D9F43AC5DAF445
:10160000DE2A000EDD224550D8A409EF8BF00BEF47
:101610008BF02FEF8BF03BC5D9F43CC5DAF4DFC477
:101620003DF5020EDE26DFC43EF5000EDD223DC58F
:10163000D9F43EC5DAF4DEC4CDF5DDC4CEF537C548
:101640001BF538C51CF5CDC51DF5CEC51EF5C9EC7D
:1016500096F01BC537F51CC538F599EF8CF037C5EA
:101660001BF538C51CF5000E1D6E000E1E6EC9EC74
:1016700096F01BC537F51CC538F599EF8CF039C5C8
:10168000D9F43AC5DAF4DEC4F6F4DDC4F7F4000E9A
:10169000F86E0800F5505B0AD8A451EF8BF053EFB9
:1016A0008BF06EEF8BF039C5D9F43AC5DAF4DE2A47
:1016B000000EDD2237C51BF538C51CF539C51DF5F3
:1016C0003AC51EF53BC51FF53CC520F53DEC88F03D
:1016D0001BC537F51CC538F599EF8CF039C5D9F421
:1016E0003AC5DAF4DEC4F6F4DDC4F7F4000EF86EA1
:1016F0000800F550250AD8A480EF8BF082EF8BF01C
:10170000C5EF8BF037C51BF538C51CF5ACEC9EF06A
:1017100037C512F538C513F5B9EC95F012C5CFF5FC
:1017200013C5D0F5250E0501CF19D011D8A49BEF14
:101730008BF09DEF8BF0ABEF8BF039C5D9F43AC548
:10174000DAF4DE2A000EDD227F4B802B386A000E91
:10175000376E99EF8CF0CF2908E1D029D8B4B3EFD8
:101760008BF0B5EF8BF0BFEF8BF0CFC510F5D0C588
:1017700011F537C512F538C513F592EC99F0FF0E47
:10178000386EFE0E376E99EF8CF039C5D9F43AC534
:10179000DAF4DE2A000EDD22A6EF8BF037C512F553
:1017A00038C513F5B9EC95F012C5CFF513C5D0F5D2
:1017B00039C5D9F43AC5DAF4DEC4F6F4DDC4F7F479
:1017C000000EF86E0800F550200AD8B4EAEF8BF04E
:1017D000ECEF8BF003EF8CF039C5D9F43AC5DAF4AD
:1017E000DEC4F6F4DDC4F7F4000EF86E0800F5C4AC
:1017F0003DF5F70E3D26050E3D6001EF8CF003EF41
:101800008CF070EF8CF039C5D9F43AC5DAF4DE2AE1
:10181000000EDD2239C5D9F43AC5DAF4DEC4F6F497
:10182000DDC4F7F4000EF86E0800F550200AD8B4B5
:101830001CEF8CF01EEF8CF003EF8CF039C5D9F45F
:101840003AC5DAF4DEC4F6F4DDC4F7F4000EF86E3F
:101850000800F5C43DF5F70E3D26040E3D6433EF58
:101860008CF035EF8CF003EF8CF043EF8CF07F4B76
:10187000802B37C512F538C513F5B9EC95F012C5B4
:10188000CFF513C5D0F5200E0501CF19D011D8B46E
:101890004CEF8CF04EEF8CF037EF8CF0CFC53DF570
:1018A000F70E3D26040E3D6458EF8CF05AEF8CF095
:1018B00037EF8CF0CF2908E1D029D8B462EF8CF053
:1018C00064EF8CF0A6EF8BF0CFC510F5D0C511F505
:1018D00037C512F538C513F592EC99F0A6EF8BF0E9
:1018E00039C5D9F43AC5DAF4DEC4F6F4DDC4F7F448
:1018F000000EF86E0800F5503D6E3E6A0501CF51AE
:101900003D1807E1D0513E18D8A489EF8CF08BEF39
:101910008CF08DEF8CF09DEF8BF0CF2906E1D02974
:10192000D8A495EF8CF097EF8CF0B5EF8BF037687B
:10193000386812001350800B1C6E13501324226E53
:1019400012AEA5EF8CF0A7EF8CF0A8EF8CF0228000
:101950002250D8B4AEEF8CF0B0EF8CF0C3EF8CF027
:101960002228D8A4B6EF8CF0B8EF8CF0C0EF8CF042
:10197000000E106E000E116E000E126E000E136E31
:10198000128ECBEF8CF0000E106E000E116E000E5A
:10199000126E000E136E1750800B1C1A175017246E
:1019A000216E16AED6EF8CF0D8EF8CF0D9EF8CF01C
:1019B00021802150D8B4DFEF8CF0E1EF8CF0F4EF10
:1019C0008CF02128D8A4E7EF8CF0E9EF8CF0F1EF50
:1019D0008CF0000E146E000E156E000E166E000ECA
:1019E000176E168EFCEF8CF0000E146E000E156E46
:1019F000000E166E000E176E2150D8B402EF8DF057
:101A000004EF8DF00CEF8DF02250D8A40AEF8DF08A
:101A10000CEF8DF016EF8DF0000E106E000E116EB3
:101A2000000E126E000E136EACEF8EF01650100208
:101A3000F3C427F5F4C428F527501D6E1E6A1F6AEB
:101A4000206A2850236E246A256A266A15501102DE
:101A5000F3C427F5F4C428F527501D26000E1E22D6
:101A60001F22202228502326000E2422252226224F
:101A700014501202F3C427F5F4C428F527501D268C
:101A8000000E1E221F22202228502326000E242270
:101A9000252226221FC520F51EC51FF51DC51EF5D2
:101AA0001D6A14501102F3C427F5F4C428F5275019
:101AB0001D2628501E22000E1F22000E2022155027
:101AC0001002F3C427F5F4C428F527501D2628502A
:101AD0001E22000E1F22000E20221FC520F51EC54B
:101AE0001FF51DC51EF51D6A14501002F3C427F51D
:101AF000F4C428F527501D2628501E22000E1F2250
:101B0000000E202216501102F3C427F5F4C428F564
:101B10002750232628502422000E2522000E26229C
:101B200015501202F3C427F5F4C428F527502326D4
:101B300028502422000E2522000E262216501202C2
:101B4000F3C427F5F4C428F52750186E2850196EF1
:101B50001A6A1B6A1AC51BF519C51AF518C519F5B5
:101B6000186A18502326195024221A5025221B5077
:101B700026221DC518F51EC519F51FC51AF520C565
:101B80001BF5190EC9EF8DF0D8901B321A3219329D
:101B90001832E82EC4EF8DF0185023261950242255
:101BA0001A5025221B5026221FC520F51EC51FF5E1
:101BB0001DC51EF51D6A215022C518F5196A182683
:101BC000000E1922820E1824276EFF0E1920286E8F
:101BD000FFEF8DF0D890233624362536263620AEFA
:101BE000F4EF8DF0F6EF8DF0F7EF8DF02380D890C5
:101BF0001D361E361F3620362706D8A0280625AEED
:101C000004EF8EF006EF8EF0EAEF8DF0216A20AE41
:101C10000CEF8EF00EEF8EF032EF8EF0FF0E1D14F3
:101C2000186EFF0E1E14196EFF0E1F141A6E7F0E13
:101C300020141B6E185019101A101B10D8B423EF63
:101C40008EF025EF8EF029EF8EF0010E216E32EF2F
:101C50008EF023A02EEF8EF030EF8EF032EF8EF06C
:101C600025EF8EF02150D8B438EF8EF03AEF8EF099
:101C70005EEF8EF0010E2326000E2422252226225E
:101C800026A045EF8EF047EF8EF05EEF8EF023C575
:101C900018F524C519F525C51AF526C51BF51B34FD
:101CA0001B321A321932183218C523F519C524F51A
:101CB0001AC525F51BC526F5274A282A28BE69EF2F
:101CC0008EF0285008E12728D8A069EF8EF06BEF3E
:101CD0008EF075EF8EF0000E236E000E246E800ED7
:101CE000256E7F0E266EA2EF8EF028BE82EF8EF05C
:101CF000285006E12704D8B080EF8EF082EF8EF0F6
:101D00008DEF8EF0000E236E000E246E000E256EF9
:101D1000000E266E1C6AA2EF8EF027C522F5FF0E7C
:101D20002316FF0E24167F0E2516000E261622A05F
:101D30009CEF8EF09EEF8EF09FEF8EF0258ED89068
:101D40002230266E1C50261223C510F524C511F52D
:101D500025C512F526C513F512002D50800B05017F
:101D6000D16F2D502D24D86F2CAEB9EF8EF0BBEF74
:101D70008EF0BCEF8EF0D881D851D8B4C2EF8EF07F
:101D8000C4EF8EF0D8EF8EF0D829D8A4CAEF8EF029
:101D9000CCEF8EF0D4EF8EF0000E2A6E000E2B6E7C
:101DA000000E2C6E000E2D6E2C8E2D6AE0EF8EF044
:101DB000000E2A6E000E2B6E000E2C6E000E2D6E85
:101DC0003150800BD11B31503124D96F30AEEBEF45
:101DD0008EF0EDEF8EF0EEEF8EF0D981D951D8B4C0
:101DE000F4EF8EF0F6EF8EF00AEF8FF0D929D8A439
:101DF000FCEF8EF0FEEF8EF006EF8FF0000E2E6EF1
:101E0000000E2F6E000E306E000E316E308E316A75
:101E100012EF8FF0000E2E6E000E2F6E000E306E41
:101E2000000E316E2E502F1030103110D8A41BEF41
:101E30008FF01DEF8FF035EF8FF0000E2A6E000E41
:101E40002B6E000E2C6E000E2D6E800E2C127F0E4F
:101E50002D12D1512D122AC52AF52BC52BF52CC5D3
:101E60002CF52DC52DF574EF90F0D851D8A43BEF8B
:101E70008FF03DEF8FF047EF8FF0000E2A6E000ECF
:101E80002B6E000E2C6E000E2D6E74EF90F0D9515B
:101E9000D8C532F5336A325E000E335A7F0E3224D3
:101EA000D26F000E3320D36F2AC5CDF52BC5CEF5EA
:101EB0002CC5CFF52DC5D0F5000E2A6E000E2B6E69
:101EC000000E2C6E000E2D6E000ED46F000ED56F1E
:101ED000000ED66F000ED76FD96BA7EF8FF0D951D8
:101EE000D8B475EF8FF077EF8FF08EEF8FF0D8903A
:101EF000CD37CE37CF37D037D8902A362B362C3641
:101F00002D36D7AF86EF8FF088EF8FF089EF8FF007
:101F10002A80D890D437D537D637D7372E50CD5DD5
:101F20002F50CE593050CF593150D059D8A09BEFB7
:101F30008FF09DEF8FF0A6EF8FF0D78D2E50CD5FF5
:101F40002F50CE5B3050CF5B3150D05BD92B190E68
:101F5000D965ADEF8FF0AFEF8FF06FEF8FF0CD5110
:101F6000CE11CF11D011D8B4B8EF8FF0BAEF8FF0F7
:101F7000D2EF8FF0D481D2EF8FF0D8902A362B3663
:101F80002C362D36D7AFC7EF8FF0C9EF8FF0CAEFE1
:101F90008FF02A80D890D437D537D637D737D207A5
:101FA000D8A0D3072CAED7EF8FF0D9EF8FF0BDEFCD
:101FB0008FF0D96BD7AFDFEF8FF0E1EF8FF005EF48
:101FC00090F0FF0ED415326EFF0ED515336EFF0E56
:101FD000D615346E7F0ED715356E3250331034104F
:101FE0003510D8B4F6EF8FF0F8EF8FF0FCEF8FF0EC
:101FF000010ED96F05EF90F02AA001EF90F003EFEA
:1020000090F005EF90F0F8EF8FF0D951D8B40BEFC6
:1020100090F00DEF90F031EF90F0010E2A26000EB7
:102020002B222C222D222DA018EF90F01AEF90F0E9
:1020300031EF90F02AC532F52BC533F52CC534F5B8
:102040002DC535F53534353234323332323232C57E
:102050002AF533C52BF534C52CF535C52DF5D24BF6
:10206000D32BD3BF3CEF90F0D35108E1D229D8A0B5
:102070003CEF90F03EEF90F049EF90F0000ED36F00
:10208000D269000E2A6E000E2B6E000E2C6E000E12
:102090002D6ED3BF56EF90F0D35106E1D205D8B0E4
:1020A00054EF90F056EF90F062EF90F0D36B000E8B
:1020B000D26F000E2A6E000E2B6E000E2C6E000EDC
:1020C0002D6ED16BD2C5D8F5D8A169EF90F06BEF2A
:1020D00090F06EEF90F02C8E6FEF90F02C9ED890D9
:1020E000D8312D6E29EF8FF012001DC5D9F41EC511
:1020F000DAF4DEC4F6F4DDC4F7F4000EF86E08007E
:10210000F550250AD8A487EF90F089EF90F019EFE9
:1021100092F01DC5D9F41EC5DAF4DE2A000EDD22C8
:1021200005017C6B000E7B6F7BC585F57D697E6943
:102130001DC5D9F41EC5DAF4DEC425F5DDC426F5C7
:1021400025C5F6F426C5F7F4000EF86E0800F55024
:10215000640AD8B4AEEF90F0B0EF90F0C0EF90F01A
:1021600025C5F6F426C5F7F4000EF86E0800F55004
:10217000690AD8A4BEEF90F0C0EF90F05DEF91F047
:102180001FC5D9F420C5DAF4DFC421F5020EDE261E
:10219000DFC422F5000EDD2221C5D9F422C5DAF410
:1021A000DEC428F5DDC429F5010E2524216E000EBC
:1021B0002620226E1DC5D9F41EC5DAF421C5DEF431
:1021C00022C5DDF4200E2C6E29BEE9EF90F0ECEF75
:1021D00090F0010EEDEF90F0000E276E2C06000E31
:1021E0002C24D96EDA6A060EDA2228C510F529C524
:1021F00011F5136A0A0E126E44EC9AF010C516F52A
:1022000011C517F5ADECA1F01650300FDF6E28C5E3
:1022100010F529C511F5136A0A0E126ED6EC98F066
:1022200010C528F511C529F528502910D8B41BEF81
:1022300091F01DEF91F025EF91F02C50D8A423EFF1
:1022400091F025EF91F0EEEF90F02C50D8B42BEFF9
:1022500091F02DEF91F052EF91F02750D8B433EF79
:1022600091F035EF91F052EF91F02C06000E2C24F6
:10227000D96EDA6A060EDA222D0EDF6E52EF91F079
:10228000000E2C24D96EDA6A060EDA22DF50216E97
:102290002150126E136A1BC514F51CC515F50FEC01
:1022A00098F02C2A200E2C18D8A459EF91F05BEF4F
:1022B00091F040EF91F02FEF92F0276A1DC5D9F40D
:1022C0001EC5DAF4DEC4F6F4DDC4F7F4000EF86ED1
:1022D0000800F550730AD8A470EF91F072EF91F0F6
:1022E0007DEF91F01DC5D9F41EC5DAF4DE2A000E8B
:1022F000DD22010E276ED3EF91F01DC5D9F41EC566
:10230000DAF4DEC4F6F4DDC4F7F4000EF86E08006B
:10231000F5506C0AD8A48FEF91F091EF91F0D3EFC4
:1023200091F01DC5D9F41EC5DAF4DEC421F5DDC473
:1023300022F5010E2126000E222221C5F6F422C527
:10234000F7F4000EF86E0800F5506C0AD8A4ABEF55
:1023500091F0ADEF91F0D3EF91F01DC5D9F41EC50A
:10236000DAF4DEC421F5DDC422F5020E2126000ECA
:10237000222221C5F6F422C5F7F4000EF86E0800FB
:10238000F550730AD8A4C7EF91F0C9EF91F0D3EFDD
:1023900091F0030E1DC5D9F41EC5DAF4DE26000E39
:1023A000DD2279EF91F02750D8B4D9EF91F0DBEF2F
:1023B00091F010EF92F01FC5D9F420C5DAF4DFC414
:1023C00021F5020EDE26DFC422F5000EDD2221C536
:1023D000D9F422C5DAF4DEC423F5DDC424F502EF16
:1023E00092F023C5D9F424C5DAF4DF50216E2150D0
:1023F000126E136A1BC514F51CC515F50FEC98F089
:10240000234A242A23C5D9F424C5DAF4DF50D8A4FA
:102410000CEF92F00EEF92F0F1EF91F02FEF92F0BF
:102420001DC5D9F41EC5DAF4DE2A000EDD222FEF19
:1024300092F01DC5D9F41EC5DAF4DEC4F6F4DDC48D
:10244000F7F4000EF86E0800F550126E136A1BC503
:1024500014F51CC515F50FEC98F010EF92F0120072
:102460001DC5D9F41EC5DAF4DEC421F5DEC422F59B
:10247000DEC423F5DEC424F520EE04F01D50D92679
:102480001E50DA22DFA047EF92F049EF92F082EF80
:1024900092F020EE01F01B50D9261C50DA22213890
:1024A000E842F80BF80BDF6E050E1F6ED890243251
:1024B0002332223221321F2E56EF92F020EE02F00C
:1024C0001B50D9261C50DA2221C5DFF422C521F584
:1024D00023C522F524C523F5246A20EE03F01B5002
:1024E000D9261C50DA2221501F0BDF6E050E1F6EFD
:1024F000D89024322332223221321F2E78EF92F0EC
:1025000099EF92F020EE03F01B50D9261C50DA22EE
:10251000DF6A10EE02F01B50E1261C50E222DFC4FD
:10252000E7F420EE01F01B50D9261C50DA22E7C454
:10253000DFF41BC5D9F41CC5DAF421C5DFF422C5CC
:1025400021F523C522F524C523F5246A21C51FF5ED
:10255000070E1F1620EE01F01B50D9261C50DA2260
:102560001F50DF1220EE04F01D50D9261E50DA2233
:10257000DF30E8320F0B206E20EE04F01D50D9261C
:102580001E50DA22DFB0C7EF92F0CBEF92F01F6A55
:102590001F2ACCEF92F01F6A1F38F00B201220EE9A
:1025A00004F01D50D9261E50DA22DFB2DAEF92F085
:1025B000DEEF92F0200E1F6EDFEF92F01F6A1F50C9
:1025C000201220EE04F01D50D9261E50DA22DFBE64
:1025D000ECEF92F0F0EF92F0400E1F6EF1EF92F000
:1025E0001F6A1F50201220EE04F01D50D9261E50E5
:1025F000DA22DFBCFEEF92F002EF93F0800E1F6E46
:1026000003EF93F01F6A1F50201220EE04F01B50BE
:10261000D9261C50DA2220C5DFF420EE04F01D502C
:10262000D9261E50DA22DFB218EF93F01AEF93F09A
:1026300042EF93F0080E1B24106E000E1C20116E4A
:1026400020EE05F01D50D9261E50DA22DEC412F508
:10265000DDC413F520EE04F01D50D9261E50DA22F9
:10266000DF30E8320F0BF70FF66EFE0ED8B0010F19
:10267000F76EF86A000EF8220800F550146E156A1D
:1026800057ECA0F012003FECA2F06C0E106E320E70
:10269000116E010E126E93ECA2F0D68EBF9022C383
:1026A00010F5116AAFECA2F0BC0E106E050E116EA3
:1026B0007DEC9FF0BE9A39EC9EF0030E0501F26F9F
:1026C0008A0EF16F550EE82EFED7F12FFCD7F22FB0
:1026D000FAD700D0BE8ABC0E106E050E116E400EE9
:1026E000126E060E136E95EC9BF0000E55ECA1F0E9
:1026F000090E186EC40E176E166A000E156E73EC76
:102700009EF015C51CF516C51DF51E6A1F6A000E44
:1027100042EC94F01CC52AF51DC52BF51EC52CF501
:102720001FC52DF5000E2E6E000E2F6E200E306E82
:10273000410E316EADEC8EF02AC536F52BC537F55E
:102740002CC538F52DC539F54CEC9FF0166A000EF6
:10275000156E170E186E700E176E73EC9EF015C581
:1027600036F516C537F5186AA00E176E166A780E7C
:10277000156E73EC9EF015C51CF516C51DF51E6A89
:102780001F6A000E42EC94F01CC52AF51DC52BF5FE
:102790001EC52CF51FC52DF5000E2E6E000E2F6EDA
:1027A000200E306E410E316EADEC8EF02AC538F53C
:1027B0002BC539F52CC53AF52DC53BF5FFEC9CF042
:1027C000BC0E2B6E050E2C6E43EC9BF0BE9A7F0E5A
:1027D0000501F26FD40EF16F310EE82EFED7F12F06
:1027E000FCD7F22FFAD700D0BE8A010E55ECA1F02B
:1027F000D69E4750D8B4FFEF93F001EF94F00FEF5F
:1028000094F0476A800E106E080E116E800E126EE4
:10281000070E136E156A800E146E41EC9DF0D68E75
:10282000800E0501ED6F080EEE6F400EEF6F060E85
:10283000F06FEDEC99F0400E406E060E416EFEEC2E
:102840009DF0500E406E060E416EC3EC9DF0410EA1
:102850000501F16FEE0EE82EFED7F12FFCD7000038
:10286000BE9A7F0E0501F26FD40EF16F310EE82E85
:10287000FED7F12FFCD7F22FFAD700D06AEF93F0F2
:102880000DEF00F0246E2450D8B449EF94F04BEFD4
:1028900094F06DEF94F01FBE52EF94F050EF94F06F
:1028A0006DEF94F01CC520F51DC521F51EC522F560
:1028B0001FC523F5201E211E221E231E202A000EC6
:1028C00021222222232220C526F521C527F522C553
:1028D00028F523C529F575EF94F01CC526F51DC50F
:1028E00027F51EC528F51FC529F51C501D101E1003
:1028F0001F10D8A47EEF94F080EF94F08AEF94F04C
:10290000000E1C6E000E1D6E000E1E6E000E1F6E61
:102910001BEF95F0960E256E94EF94F0252AD89033
:102920002932283227322632000E2614206E000E5D
:102930002714216E000E2814226EFE0E2914236E19
:102940002050211022102310D8A4A9EF94F0ABEF4F
:1029500094F08EEF94F0B9EF94F0252A010E26261C
:10296000000E272228222922D89029322832273205
:102970002632000E2614206E000E2714216E000E43
:102980002814226EFF0E2914236E205021102210CD
:102990002310D8A4CEEF94F0D0EF94F0ADEF94F0E4
:1029A000D8EF94F02506D8902636273628362936D3
:1029B00028BEDDEF94F0DFEF94F0E7EF94F0020E25
:1029C0002560E5EF94F0E7EF94F0D2EF94F025B0B6
:1029D000ECEF94F0EEEF94F0EFEF94F0289ED890A7
:1029E000253225C520F5216A226A236A20C523F5F0
:1029F000226A216A206A2050261221502712225072
:102A00002812235029122450D8B409EF95F00BEF67
:102A100095F013EF95F01FBE12EF95F010EF95F0C3
:102A200013EF95F0298E26C51CF527C51DF528C581
:102A30001EF529C51FF51200166A000E156E146AE0
:102A400024EF95F0104A112A10C5F6F411C5F7F4D9
:102A5000000EF86E0800F550200AD8B432EF95F059
:102A600034EF95F022EF95F010C5F6F411C5F7F4A8
:102A7000000EF86E0800F5C412F5F70E1226040ECB
:102A8000126445EF95F047EF95F022EF95F010C5F1
:102A9000F6F411C5F7F4000EF86E0800F5502D0A93
:102AA000D8A455EF95F057EF95F05DEF95F0010E36
:102AB000146E104A112A8BEF95F010C5F6F411C56B
:102AC000F7F4000EF86E0800F5502B0AD8A46BEF4F
:102AD00095F06DEF95F08BEF95F059EF95F00A0EAC
:102AE0001502F3C412F5F4C413F51602F3501326BD
:102AF00010C5F6F411C5F7F4000EF86E0800F55095
:102B0000125E000E135A300E1224156E000E1320A2
:102B1000166E59EF95F010C5F6F411C5F7F4000ED6
:102B2000F86E0800F5C412F5D00E1226090E1264D4
:102B30009CEF95F09EEF95F06FEF95F01450D8A4B0
:102B4000A4EF95F0A6EF95F0B4EF95F015C512F54A
:102B500016C513F5121E131E124A132A12C510F5BC
:102B600013C511F5B8EF95F015C510F516C511F59B
:102B7000120012501310D8A4C0EF95F0C2EF95F0D8
:102B8000E0EF95F04450D8A4C8EF95F0CAEF95F067
:102B9000D2EF95F0C3ECA2F010C519F511C51AF5E6
:102BA00042EF96F04406780E4424D96EDA6A050E98
:102BB000DA22DF50146E1450196E1A6A42EF96F042
:102BC00020EE07F01250D9261350DA22DE50DE1024
:102BD000D8B4EDEF95F0EFEF95F00FEF96F020EE13
:102BE00007F01250D9261350DA22DE06000EDD5A05
:102BF000DEC414F5DDC415F514501224166E1550FC
:102C00001320176E040E1624D96E000E1720DA6EEC
:102C1000DF50186E1850196E1A6A42EF96F020EEC7
:102C200002F01250D9261350DA22DEC414F5DDC4A6
:102C300015F512C5D9F413C5DAF4DEC416F5DDC4F2
:102C400017F514501624D96E15501720DA6EDF5080
:102C5000186E1850196E1A6A19501A10D8A433EF4A
:102C600096F035EF96F039EF96F019681A6842EF52
:102C700096F020EE02F01250D9261350DA22DE2A06
:102C8000000EDD2219C512F51AC513F51200000E4B
:102C90001014186E000E1114196E800E12141A6E94
:102CA0007F0E13141B6E185019101A101B10D8A485
:102CB0005CEF96F05EEF96F066EF96F0000E106E09
:102CC000000E116E000E126E000E136E000E141424
:102CD000186E000E1514196E800E16141A6E7F0EE3
:102CE00017141B6E185019101A101B10D8A47BEF64
:102CF00096F07DEF96F085EF96F0000E146E000EC4
:102D0000156E000E166E000E176E13AE8AEF96F05B
:102D10008CEF96F095EF96F0106C111ED8B0112A3A
:102D2000121ED8B0122A800E135617AE9AEF96F0E4
:102D30009CEF96F0A5EF96F0146C151ED8B0152AEE
:102D4000161ED8B0162A800E1756000E101A000E46
:102D5000111A000E121A800E131A000E141A000E09
:102D6000151A000E161A800E171A1450105C155002
:102D700011581650125817501358D8B0C2EF96F089
:102D8000C4EF96F0C7EF96F0D890C8EF96F0D880D1
:102D9000120042504310D8A4D0EF96F0D2EF96F034
:102DA000D7EF96F0216A010E206EDBEF96F042C558
:102DB00020F543C521F5256A000E246E22EF97F019
:102DC0001BC512F51CC513F5B9EC95F012C522F51B
:102DD00013C523F5222806E12328D8A4F2EF96F0A4
:102DE000F4EF96F00CEF97F042504310D8A4FBEFAD
:102DF00096F0FDEF96F006EF97F024502510D8A43A
:102E000004EF97F006EF97F00CEF97F022C51BF553
:102E100023C51CF53EEF97F01D501E10D8B413EFDC
:102E200097F015EF97F01DEF97F024501D24D96E01
:102E300025501E20DA6E22C5DFF4244A252A05011A
:102E40007F4B802B2050245C2550800A1F6E215020
:102E5000800A1F58D8A02FEF97F031EF97F0E0EFDE
:102E600096F01D501E10D8A438EF97F03BEF97F066
:102E7000010E3CEF97F0000E1B6E1C6A1200146EE0
:102E8000156A20EE04F01150D9261250DA22DF50D4
:102E9000166E16AE4EEF97F050EF97F05BEF97F08F
:102EA000B4ECA2F0060AD8A458EF97F05AEF97F0C6
:102EB0005BEF97F015821630E8320F0B136E080E99
:102EC000136465EF97F067EF97F079EF97F016AC22
:102ED0006CEF97F06EEF97F078EF97F0B4ECA2F00C
:102EE000060AD8A476EF97F078EF97F079EF97F08D
:102EF0001580FF0EF66EFE0EF76E000EF86E0800DF
:102F0000F5C413F51630E8320F0BF70FF66EFE0E10
:102F1000D8B0010FF76EF86A000EF8220800F550DD
:102F2000135CD8B096EF97F098EF97F099EF97F081
:102F3000158014504EECA2F00009D8A4A2EF97F02F
:102F4000A4EF97F0A6EF97F0030E1512155012009C
:102F5000D3C5DBF5D4C5DCF50501806B000E7F6FB2
:102F60007FC581F580C582F583C5D7F584C5D8F5C1
:102F7000DDEF97F0846B000E836FD1C537F5D2C5B6
:102F800038F5DB0E396E050E3A6ED5C53BF5D6C564
:102F90003CF573EC8AF037C5D9F538C5DAF505018B
:102FA000DABFD7EF97F0D5EF97F0D9EF97F0EDEFC5
:102FB00097F0D9518127DA518223DBC5F6F4DCC5BD
:102FC000F7F4000EF86E0800F5500009D8A4EBEFF6
:102FD00097F0EDEF97F0BAEF97F0D7C583F5D8C526
:102FE00084F5D92906E1DA29D8A4F9EF97F0FBEFA7
:102FF00097F00AEF98F081518211D8A402EF98F06F
:1030000004EF98F00AEF98F0D9C5D1F5DAC5D2F5FA
:103010000EEF98F081C5D1F582C5D2F5120014509B
:103020001510D8B416EF98F018EF98F021EF98F03B
:1030300014501510D8A41FEF98F021EF98F026EF48
:1030400098F01250B9ECA2F073EF98F020EE09F06E
:103050001450D9261550DA22DE50DE10D8B433EFE2
:1030600098F035EF98F050EF98F020EE09F01450FA
:10307000D9261550DA2210EE02F01450E126155030
:10308000E222DE50E65CE650800A1A6EDE50800ACC
:103090001A58D8B04EEF98F050EF98F073EF98F0C0
:1030A00020EE02F01450D9261550DA22DEC416F5AF
:1030B000DDC417F514C5D9F415C5DAF4DEC418F566
:1030C000DDC419F516501824D96E17501920DA6E80
:1030D00012C5DFF420EE02F01450D9261550DA2282
:1030E000DE2A000EDD221200600E4A24D96EDA6A52
:1030F000050EDA22DF6A0201B2A781EF98F083EFB2
:1031000098F098EF98F0600E4A24D96EDA6A050EAE
:10311000DA22DF8202D898EF98F00500FA6E0501F6
:10312000F651FD6EF751FE6EF851FF6EFA50120027
:103130000201B2A39EEF98F0A0EF98F0B5EF98F0DF
:10314000600E4A24D96EDA6A050EDA22DF8402D8CC
:10315000B5EF98F00500FA6E0501F351FD6EF451DC
:10316000FE6EF551FF6EFA501200600E4A24D96EC1
:10317000DA6A050EDA22DF50D8B4C1EF98F0C3EF57
:1031800098F0D3EF98F002D8D1EF98F00500FA6EDE
:1031900006019A51FD6E9B51FE6E9C51FF6EFA50D6
:1031A0001200D5EF98F0F4ECA1F01200156A13BEEE
:1031B000DEEF98F0DCEF98F0E4EF98F0126C131E5D
:1031C000D8B0132A010E156E11BEEBEF98F0E9EF9F
:1031D00098F0F1EF98F0106C111ED8B0112A010E82
:1031E000151A176A000E166E12501310D8B4FBEFA2
:1031F00098F0FDEF98F025EF99F0010E146E05EFB1
:1032000099F0D89012361336142A13AE0AEF99F0BB
:103210000CEF99F001EF99F0D8901636173612504E
:10322000105C13501158D8A018EF99F01AEF99F0CC
:103230001FEF99F01250105E1350115A1680D8905B
:1032400013321232142E0CEF99F01550D8B42BEF24
:1032500099F02DEF99F031EF99F0166C171ED8B058
:10326000172A16C510F517C511F51200A1C209F5E8
:10327000240E0918D8A43FEF99F041EF99F04DEFD3
:1032800099F0EA0E036EFF0E046E13ECA1F0070135
:10329000006B466A010E0501866F05018605D8A4FC
:1032A00054EF99F056EF99F091EF99F0000E462403
:1032B000D96EDA6A070EDA2209C5DFF4462A2A0E29
:1032C0000918D8A466EF99F068EF99F084EF99F0A7
:1032D000010E476E866B000E4624D96EDA6A070E21
:1032E000DA22DF6A800E016E070E026E000E036E98
:1032F000070E046E010E4624056E066A000E0622B5
:1033000082EC9DF091EF99F07F0E4618D8A48BEFD8
:1033100099F08DEF99F091EF99F0866B0701006BB2
:10332000806B1200102806E11128D8A49AEF99F0BA
:103330009CEF99F09EEF99F0ECEF99F0125013107A
:10334000D8A4A5EF99F0A7EF99F0BBEF99F0030E81
:103350004418D8B4AEEF99F0B0EF99F0ECEF99F0D3
:10336000780E4424D96EDA6A050EDA2210C5DFF42D
:10337000442AECEF99F020EE07F01250D9261350B2
:10338000DA22030EDE18DE10D8B4C9EF99F0CBEFC5
:1033900099F0ECEF99F020EE07F01250D926135077
:1033A000DA22DEC414F5DDC415F514501224166EAD
:1033B00015501320176E040E1624D96E000E172018
:1033C000DA6E10C5DFF420EE07F01250D926135044
:1033D000DA22DE2A000EDD221200C10E356EFF0E4B
:1033E000366EEDC537F5EEC538F51BECA2F0EDC530
:1033F000DDF5EEC5DEF5020E0501DF6FFF0EE06FB5
:10340000EFC5E1F5F0C5E2F5380EEF25E36F000EEC
:10341000F021E46F100EEF25E56F000EF021E66F4E
:10342000390EEF25E76F000EF021E86F200EEF2533
:10343000E96F000EF021EA6F3A0EEF25EB6F000EF8
:10344000F021EC6FA7ECA0F0DDC53FF5DEC540F53F
:10345000AA0E356EFF0E366E3FC537F540C538F5FE
:103460001BECA2F0320E356EFF0E366EEFC537F54F
:10347000F0C538F5100E0501EF25396E000EF0216C
:103480003A6E1BECA2F01200156A11BE4CEF9AF0D6
:103490004AEF9AF052EF9AF0106C111ED8B0112A30
:1034A000010E156E13BE59EF9AF057EF9AF05DEFCB
:1034B0009AF0126C131ED8B0132A12501310D8B4FD
:1034C00064EF9AF066EF9AF08AEF9AF0010E146EAC
:1034D0006EEF9AF0D89012361336142A13AE73EFAB
:1034E0009AF075EF9AF06AEF9AF01250105C135050
:1034F0001158D8A07EEF9AF080EF9AF084EF9AF0FE
:103500001250105E1350115AD89013321232142EEA
:1035100075EF9AF01550D8B490EF9AF092EF9AF0B8
:1035200096EF9AF0106C111ED8B0112A10C510F544
:1035300011C511F51200000E1014186E000E1114B2
:10354000196E800E12141A6E7F0E13141B6E185013
:1035500019101A101B10D8A4B0EF9AF0B2EF9AF01D
:10356000BAEF9AF0000E106E000E116E000E126E81
:10357000000E136E000E1414186E000E1514196E42
:10358000800E16141A6E7F0E17141B6E1850191029
:103590001A101B10D8A4CFEF9AF0D1EF9AF0D9EF00
:1035A0009AF0000E146E000E156E000E166E000ED0
:1035B000176E145010180FE1155011180CE1165029
:1035C000121809E117501318D8B4E9EF9AF0EBEF8D
:1035D0009AF0EEEF9AF0D890EFEF9AF0D8801200C0
:1035E000FAC40AF5FBC40BF5F6C40CF5F7C40DF5E7
:1035F000F8C40EF5F5C40FF5A2A201EF9BF003EF9E
:103600009BF01AEF9BF0B2A208EF9BF00AEF9BF041
:103610001AEF9BF002D818EF9BF00500FA6E050137
:10362000F951FD6EFA51FE6EFB51FF6EFA50120019
:1036300036EF9BF0A2A01FEF9BF021EF9BF036EF3F
:103640009BF0B2A026EF9BF028EF9BF036EF9BF0AB
:1036500002D836EF9BF00500FA6E0501FC51FD6EB5
:10366000FD51FE6EFE51FF6EFA5012000FC5F5F4CB
:103670000EC5F8F40DC5F7F40CC5F6F40BC5FBF454
:103680000AC5FAF411002BC5D9F42CC5DAF4DF50C1
:103690000501A06F20EE01F02B50D9262C50DA2224
:1036A000DF50A16F20EE02F02B50D9262C50DA22E9
:1036B000DF50A26F20EE03F02B50D9262C50DA22D7
:1036C000DF50A36F20EE04F02B50D9262C50DA22C5
:1036D000DF50A46F20EE05F02B50D9262C50DA22B3
:1036E000DF50A56F20EE06F02B50D9262C50DA22A1
:1036F000DF50A66F220EA76F000EA86F000EA96FF5
:10370000000EAA6FAB91AB51C30B1C09AB6FAB9F03
:10371000AB9DA00EAC6F050EAD6FA70E256E050E0E
:10372000266E010EE4EC9BF0120020EE04F0105027
:10373000D9261150DA2210EE21F01250E126135052
:10374000E222E750146E10EE20F01250E1261350E2
:10375000E222E7500A0DF3501424F00FDF6E20EE42
:1037600005F01050D9261150DA2210EE23F0125035
:10377000E1261350E222E750146E10EE22F01250B0
:10378000E1261350E222E7500A0DF3501424F00F03
:10379000DF6E20EE06F01050D9261150DA2210EE1E
:1037A00025F01250E1261350E222E750146E10EE7D
:1037B00024F01250E1261350E222E7500A0DF35094
:1037C0001424F00FDF6E12002A6E030E296E2A50A9
:1037D00074ECA1F00009D8B4F0EF9BF0F2EF9BF08D
:1037E0002BEF9CF025C511F526C512F52A503FECAC
:1037F00097F0296E2950D8A400EF9CF002EF9CF0BE
:103800002BEF9CF02A500C0D580EF324D96E010EAC
:10381000F420DA6EDEC427F5DDC428F52750281021
:10382000D8B415EF9CF017EF9CF02BEF9CF027C558
:103830001BF528C51CF525C51DF526C51EF530EC64
:1038400092F02A500C0D510EF324D96E010EF42083
:10385000DA6E030EDF1229501200A290E80E106EED
:10386000300E116E010E126E93ECA2F0A2926A0E4F
:10387000106E420E116E010E126E8CECA2F002015F
:10388000A56BA66BA76BA86BA96BAA6BB00EAB6FF1
:10389000800EAC6FAD6B080EAE6F020EAF6FB06BEB
:1038A000B16BB26BB36B9A0E106E450E116E010EBA
:1038B000126EA1ECA2F0980E106E450E116E010E64
:1038C000126E9AECA2F08C0E106E450E116E010E67
:1038D000126EA8ECA2F005018A6B4D6A4C6A080EC4
:1038E0004B6E4A6A496A486AA2801200960EF66ECA
:1038F000450EF76E010EF86E0900F5C44FF509008C
:10390000F5C450F502EE00F110EE00F1EE6AE5505C
:10391000E150FCE1E250FAE102EE00F010EE00F1BD
:10392000EE6AE550E150FCE1E250FAE101EE00F30D
:1039300010EE00F1EE6AE550E150FCE1E250FAE1F0
:1039400001EE00F28B0EEE6AE806FDE101EE60F199
:103950006D0EEE6AE806FDE101EE42F10D0EEE6A33
:10396000E806FDE10401080E5D6F000E5E6F000EBB
:103970005F6F000143EF93F0126E116AB4ECA2F096
:10398000106E040E1018D8B4C8EF9CF0CAEF9CF06B
:10399000DBEF9CF01204D8B4D0EF9CF0D2EF9CF097
:1039A000DBEF9CF0040E1218D8A4D9EF9CF0DBEFEB
:1039B0009CF0FBEF9CF0010103511218F80B121858
:1039C000036FEEEF9CF01DA9E8EF9CF0EAEF9CF08E
:1039D000EEEF9CF0020E116EFDEF9CF00239E83222
:1039E000070B1218D8A4F7EF9CF0F9EF9CF0E3EF67
:1039F0009CF0FDEF9CF0010E116E1150120038C5C5
:103A00003CF539C53DF53AC53EF53BC53FF536C5F4
:103A100040F537C541F5C30E106E050E116E400E10
:103A2000126E050E136E156A020E146E57ECA0F09E
:103A3000C50E106E050E116E3C0E126E050E136E45
:103A4000156A040E146E57ECA0F01A0E0501AE6F45
:103A5000000EAF6F000EB06F000EB16FB291B25199
:103A6000C30B1809B26FB29FB29DC30EB36F050EA0
:103A7000B46FAE0E256E050E266E010EE4EC9BF0C3
:103A8000120010C516F511C517F562EF9DF014066A
:103A9000D8A0150612C5D9F413C5DAF4124A132AB0
:103AA00016C5E1F417C5E2F4164A172ADFC4E7F495
:103AB000E750D8A45EEF9DF060EF9DF062EF9DF0BF
:103AC00074EF9DF014501510D8A469EF9DF06BEFC2
:103AD0009DF047EF9DF074EF9DF016C5D9F417C522
:103AE000DAF4DF6A164A172A1406D8A01506142835
:103AF00006E11528D8A47FEF9DF081EF9DF06DEFD2
:103B00009DF0120001C507F502C508F5A3EF9DF071
:103B10000506D8A0060603C5D9F404C5DAF4034A9D
:103B2000042A07C5E1F408C5E2F4074A082ADFC4FD
:103B3000E7F4E750D8A49FEF9DF0A1EF9DF0A3EF2D
:103B40009DF0B5EF9DF005500610D8A4AAEF9DF0AA
:103B5000ACEF9DF088EF9DF0B5EF9DF007C5D9F46F
:103B600008C5DAF4DF6A074A082A0506D8A006065F
:103B7000052806E10628D8A4C0EF9DF0C2EF9DF00D
:103B8000AEEF9DF0120040C536F541C537F5000E89
:103B9000386E000E396E00EC80F036C5E9F537C599
:103BA000EAF538C5EBF539C5ECF57B0E106E060E5F
:103BB000116EE90E126E050E136E156A080E146E64
:103BC00057ECA0F0250E0501926F000E936F000ECA
:103BD000946F000E956F96919651C30B2009966FC6
:103BE000969F969D7B0E976F060E986F920E256E90
:103BF000050E266E010EE4EC9BF0120040C536F572
:103C000041C537F5000E386E000E396E00EC80F0BD
:103C100036C5E9F537C5EAF538C5EBF539C5ECF534
:103C2000830E106E060E116EE90E126E050E136EE7
:103C3000156A080E146E57ECA0F0240E0501996F5A
:103C4000000E9A6F000E9B6F000E9C6F9D919D5110
:103C5000C30B20099D6F9D9F9D9D830E9E6F060E39
:103C60009F6F990E256E050E266E010EE4EC9BF0FB
:103C70001200620E126EFF0E136EF1ECA0F0030E36
:103C8000156E8A0E146E560EE82EFED7142EFCD733
:103C9000152EFAD7920E126EFF0E136EF1ECA0F0F5
:103CA000030E156E8A0E146E560EE82EFED7142ED5
:103CB000FCD7152EFAD77A0E126EFF0E136EF1ECAA
:103CC000A0F0030E156E8A0E146E560EE82EFED767
:103CD000142EFCD7152EFAD74A0E126EFF0E136E55
:103CE000F1ECA0F012004FC519F550C51AF5070EFA
:103CF000D89019361A36E82E78EF9EF019504F1AE0
:103D00001A50501A4FC519F550C51AF5090E1B6EF9
:103D1000D8901A3219321B2E88EF9EF019504F1A84
:103D20001A50501A4F501A6E196A19504F1A1A50D9
:103D3000501A4FC510F550C511F51550175C126E8D
:103D400016501858136E1AEC9FF015501024156E6B
:103D500016501120166E1200D0EF9EF0200E1E1885
:103D60001F10D8B4B6EF9EF0B8EF9EF0D0EF9EF0E3
:103D70001EC51DF5F70E1D26040E1D64C2EF9EF034
:103D8000C4EF9EF0D0EF9EF01EC510F51FC511F5D3
:103D90001BC512F51CC513F592EC99F0E4EF9EF0EB
:103DA0001BC512F51CC513F5B9EC95F012C51EF52F
:103DB00013C51FF51E2806E11F28D8A4E2EF9EF0C8
:103DC000E4EF9EF0AEEF9EF01200000E186E000EB3
:103DD000196E000E1A6E000E1B6E10A0F2EF9EF010
:103DE000F4EF9EF0FCEF9EF01450182615501922A7
:103DF00016501A2217501B22D89014361536163634
:103E00001736D8901332123211321032105011106E
:103E100012101310D8A40FEF9FF011EF9FF0EDEFE9
:103E20009EF018C510F519C511F51AC512F51BC578
:103E300013F5120012501310D8B421EF9FF023EFA6
:103E40009FF047EF9FF0010E146E2BEF9FF0D8907C
:103E500012361336142A13AE30EF9FF032EF9FF074
:103E600027EF9FF01250105C13501158D8A03BEF71
:103E70009FF03DEF9FF041EF9FF01250105E135006
:103E8000115AD89013321232142E32EF9FF010C50F
:103E900010F511C511F5120036C53AF537C53BF5D9
:103EA00038C53CF539C53DF5C90E106E050E116ECD
:103EB0003A0E126E050E136E156A040E146E57EC50
:103EC000A0F0330E0501B56F000EB66F000EB76F90
:103ED000000EB86FB991B951C30B1009B96FB99FF2
:103EE000B99DC90EBA6F050EBB6FB50E256E050ED6
:103EF000266E010EE4EC9BF0120010C5D9F411C53A
:103F0000DAF4E90EDE6E070EDD6E20EE02F01050E0
:103F1000D9261150DA22010EDF6E20EE03F0105088
:103F2000D9261150DA22060EDF6E20EE04F0105072
:103F3000D9261150DA22080EDF6E20EE05F010505F
:103F4000D9261150DA220D0EDF6E20EE06F0105049
:103F5000D9261150DA220A0EDF6E1200BE6ABF6A3D
:103F6000C06A080ECA6EDF0EC66EEE0EC76EF70E82
:103F7000C86EF30E0401106FE60E086FDF0E006FBF
:103F8000216B096B016B116B026B0A6B126B03697E
:103F90000B69136904690C691469080E246F200EFB
:103FA0000201146F0B0E3D6F460E0D6F120E726FF5
:103FB0001200010E166E10C512F5D00E1226090E53
:103FC0001264E5EF9FF0E7EF9FF0FFEF9FF0200E08
:103FD0001010126E000E1110136E9F0E1224146E2C
:103FE000FF0E1320156E155009E1060E145CD8A0C3
:103FF000FCEF9FF0FEEF9FF0FFEF9FF0166A16C5F3
:1040000010F5116A1200106E4B50D8B40AEFA0F0F0
:104010000CEFA0F004EFA0F0A2B211EFA0F013EFAC
:10402000A0F017EFA0F010C5A3F22BEFA0F0A29222
:10403000700E4D24D96EDA6A050EDA2210C5DFF44F
:104040004D2A070E4D6427EFA0F029EFA0F02AEFCC
:10405000A0F04D6A4B06A2821200016E4B50D8B4FC
:1040600034EFA0F036EFA0F02EEFA0F0A2B23BEFBD
:10407000A0F03DEFA0F041EFA0F001C5A3F255EF95
:10408000A0F0A292700E4D24D96EDA6A050EDA22E3
:1040900001C5DFF44D2A070E4D6451EFA0F053EF38
:1040A000A0F054EFA0F04D6A4B06A282120012C598
:1040B00018F513C519F510C516F511C517F571EFEB
:1040C000A0F018C5D9F419C5DAF4DF501A6E184AF1
:1040D000192A16C5D9F417C5DAF41AC5DFF4164A39
:1040E000172A1406D8A01506142806E11528D8A406
:1040F0007CEFA0F07EEFA0F061EFA0F012002FC5E2
:1041000033F530C534F593EFA0F02DC51BF52EC562
:104110001CF5330E1D6E050E1E6E31C51FF532C522
:1041200020F575EC90F033C5F6F434C5F7F4000EC5
:10413000F86E0800F5500009D8A4A1EFA0F0A3EF95
:10414000A0F085EFA0F02E6A000E2D6E1200E10E99
:1041500006018D6F050E8E6FDDC58FF6DEC590F6FC
:10416000926B000E916F976B000E966F8F0E05018C
:10417000D16F060ED26FDFC5D3F5E0C5D4F58D0E35
:10418000D56F060ED66FA8EC97F0D1C58BF6D2C5C9
:104190008CF68BC6DDF58CC6DEF512000101018FB1
:1041A000040EBCEC9CF00009D8A4D9EFA0F0DBEF22
:1041B000A0F0F0EFA0F0000E01014C6F380E4D6F33
:1041C000000E4E6F000E4F6F600E006F970E016F66
:1041D000026B83ECA2F070ECA2F0060EBCEC9CF03B
:1041E0001200FFEFA0F012C5F6F413C5F7F4000EAD
:1041F000F86E0800F550B9ECA2F0124A132A12C565
:10420000F6F413C5F7F4000EF86E0800F550000937
:10421000D8A40DEFA1F00FEFA1F0F3EFA0F00A0E7C
:10422000B9ECA2F0120021EFA1F003C5F6F404C529
:10423000F7F4000EF86E0800F550BEECA2F0034A49
:10424000042A03C5F6F404C5F7F4000EF86E08005E
:10425000F5500009D8A42FEFA1F031EFA1F015EF30
:10426000A1F00A0EBEECA2F01200080E4B603BEF6C
:10427000A1F03DEFA1F053EFA1F0700E4C24D96EE8
:10428000DA6A050EDA22DF500201A36F4C2A070E0C
:104290004C644DEFA1F04FEFA1F050EFA1F04C6A4C
:1042A0004B2A54EFA1F0A29212002B6E2BC54EF5B3
:1042B000450E05018B6F000E8C6F000E8D6F000E8A
:1042C0008E6F8F918F51C30B04098F6F8F9F8F9DBE
:1042D0004E0E906F050E916F8B0E256E050E266E9D
:1042E000010EE4EC9BF01200116E106A040E1160D6
:1042F0007CEFA1F07EEFA1F08FEFA1F011500C0D3B
:10430000500EF324D96E010EF420DA6EDFAE8BEF7F
:10431000A1F08DEFA1F08FEFA1F0010E106E105003
:1043200012001050111012101310D8B49AEFA1F00F
:104330009CEFA1F0A4EFA1F0000E101A000E111ACC
:10434000000E121A800E131A10C510F511C511F5C2
:1043500012C512F513C513F5120017BEB2EFA1F086
:10436000B4EFA1F0BAEFA1F016C516F517C517F511
:10437000C6EFA1F016C518F517C519F5181E191EB8
:10438000184A192A18C516F519C517F5120010C5CF
:1043900012F59F0E12261A0E1260D1EFA1F0D3EF84
:1043A000A1F0D9EFA1F05F0E1014106E116ADDEFCD
:1043B000A1F010C510F511C511F51200D00E102492
:1043C000126EFF0E1120136E13500AE10A0E125CDA
:1043D000D8A0EDEFA1F0F0EFA1F0010EF1EFA1F008
:1043E000000E106E116A1200680E4A24D96EDA6A45
:1043F000050EDA22A1C2DFF44A2A070E4A6403EF4F
:10440000A2F005EFA2F006EFA2F04A6A482A1200D5
:1044100010501202F3C414F5F4C415F51050130231
:10442000F350152611501202F350152614C510F53D
:1044300015C511F51200370E3B6E050E3C6E000ED1
:104440002D6E000E2E6E35C52FF536C530F53B0EA0
:10445000316E050E326E7FECA0F01200FF0E146E6E
:10446000FF0E156EFF0E166E7F0E176E14C510F53B
:1044700015C511F516C512F517C513F51200C9ECCF
:10448000A2F065ECA2F0AEEC9FF07AECA2F05AEC50
:10449000A2F02DEC9CF0CEECA0F01200106E1050AB
:1044A0000C0D540EF324D96E010EF420DA6EDF5099
:1044B000010B1200010E0301266F256B276B236988
:1044C000226BB196800E246F12000001606B616B4D
:1044D000626B636B646B656B666B676B686B12001A
:1044E000800E01015C6F040E5D6F600E5E6F0F0E3B
:1044F0005F6F1200700E0001AD6FAF6BB36B080EF3
:10450000B16FB06B1200270E0101046F270E056F0B
:10451000760E066F076B120010C5F9F511C5FAF596
:1045200012C5FBF5120010C5FCF511C5FDF512C54D
:10453000FEF5120010C5F3F511C5F4F512C5F5F539
:10454000120010C5F6F511C5F7F512C5F8F5120001
:1045500010C59AF611C59BF612C59CF6120010C53F
:104560004FF511C550F5120001010239E832070B71
:104570001200116E115003ECA0F01200026E0250F6
:104580002DECA0F01200106811681200F4ECA1F0FC
:0C4590001200D69A1200563412001200DD
:020000040030CA
:10000000FAEFF7FF9FFFFFFFFFFFFFFFFFFFFFFF7D
:03001000FFFFFFF0
:08001700FFFFFFFFFFFFFFFFE9
:00000001FF
